{
	"contracts/TccUser.sol": {
		"TccUser": {
			"abi": [
				{
					"inputs": [
						{
							"internalType": "address",
							"name": "_walletAddress",
							"type": "address"
						}
					],
					"name": "getCurrentUsername",
					"outputs": [
						{
							"internalType": "string",
							"name": "",
							"type": "string"
						}
					],
					"stateMutability": "view",
					"type": "function"
				},
				{
					"inputs": [
						{
							"internalType": "string",
							"name": "_username",
							"type": "string"
						},
						{
							"internalType": "address",
							"name": "_walletAddress",
							"type": "address"
						}
					],
					"name": "login",
					"outputs": [
						{
							"components": [
								{
									"internalType": "string",
									"name": "username",
									"type": "string"
								},
								{
									"internalType": "string",
									"name": "fullname",
									"type": "string"
								},
								{
									"internalType": "address",
									"name": "walletAddress",
									"type": "address"
								}
							],
							"internalType": "struct TccUser.User",
							"name": "",
							"type": "tuple"
						}
					],
					"stateMutability": "view",
					"type": "function"
				},
				{
					"inputs": [
						{
							"internalType": "string",
							"name": "_username",
							"type": "string"
						},
						{
							"internalType": "string",
							"name": "_fullname",
							"type": "string"
						},
						{
							"internalType": "address",
							"name": "_walletAddress",
							"type": "address"
						}
					],
					"name": "registerUser",
					"outputs": [],
					"stateMutability": "nonpayable",
					"type": "function"
				},
				{
					"inputs": [
						{
							"internalType": "string",
							"name": "_username",
							"type": "string"
						}
					],
					"name": "userExist",
					"outputs": [],
					"stateMutability": "view",
					"type": "function"
				},
				{
					"inputs": [
						{
							"internalType": "address",
							"name": "",
							"type": "address"
						}
					],
					"name": "userNames",
					"outputs": [
						{
							"internalType": "string",
							"name": "",
							"type": "string"
						}
					],
					"stateMutability": "view",
					"type": "function"
				},
				{
					"inputs": [
						{
							"internalType": "string",
							"name": "",
							"type": "string"
						}
					],
					"name": "users",
					"outputs": [
						{
							"internalType": "string",
							"name": "username",
							"type": "string"
						},
						{
							"internalType": "string",
							"name": "fullname",
							"type": "string"
						},
						{
							"internalType": "address",
							"name": "walletAddress",
							"type": "address"
						}
					],
					"stateMutability": "view",
					"type": "function"
				}
			],
			"devdoc": {
				"kind": "dev",
				"methods": {},
				"version": 1
			},
			"evm": {
				"assembly": "    /* \"contracts/TccUser.sol\":57:1589  contract TccUser {... */\n  mstore(0x40, 0x80)\n  callvalue\n  dup1\n  iszero\n  tag_1\n  jumpi\n  0x00\n  dup1\n  revert\ntag_1:\n  pop\n  dataSize(sub_0)\n  dup1\n  dataOffset(sub_0)\n  0x00\n  codecopy\n  0x00\n  return\nstop\n\nsub_0: assembly {\n        /* \"contracts/TccUser.sol\":57:1589  contract TccUser {... */\n      mstore(0x40, 0x80)\n      callvalue\n      dup1\n      iszero\n      tag_1\n      jumpi\n      0x00\n      dup1\n      revert\n    tag_1:\n      pop\n      jumpi(tag_2, lt(calldatasize, 0x04))\n      shr(0xe0, calldataload(0x00))\n      dup1\n      0x024109ad\n      eq\n      tag_3\n      jumpi\n      dup1\n      0x1b81e2d2\n      eq\n      tag_4\n      jumpi\n      dup1\n      0x689e1c03\n      eq\n      tag_5\n      jumpi\n      dup1\n      0x7f281635\n      eq\n      tag_6\n      jumpi\n      dup1\n      0x88557b07\n      eq\n      tag_7\n      jumpi\n      dup1\n      0xef9b432a\n      eq\n      tag_8\n      jumpi\n    tag_2:\n      0x00\n      dup1\n      revert\n        /* \"contracts/TccUser.sol\":843:1104  function getCurrentUsername(address _walletAddress) public view returns (string memory) {... */\n    tag_3:\n      tag_9\n      0x04\n      dup1\n      calldatasize\n      sub\n      dup2\n      add\n      swap1\n      tag_10\n      swap2\n      swap1\n      tag_11\n      jump\t// in\n    tag_10:\n      tag_12\n      jump\t// in\n    tag_9:\n      mload(0x40)\n      tag_13\n      swap2\n      swap1\n      tag_14\n      jump\t// in\n    tag_13:\n      mload(0x40)\n      dup1\n      swap2\n      sub\n      swap1\n      return\n        /* \"contracts/TccUser.sol\":1110:1296  function userExist(string memory _username) public view {... */\n    tag_4:\n      tag_15\n      0x04\n      dup1\n      calldatasize\n      sub\n      dup2\n      add\n      swap1\n      tag_16\n      swap2\n      swap1\n      tag_17\n      jump\t// in\n    tag_16:\n      tag_18\n      jump\t// in\n    tag_15:\n      stop\n        /* \"contracts/TccUser.sol\":217:253  mapping(string => User) public users */\n    tag_5:\n      tag_19\n      0x04\n      dup1\n      calldatasize\n      sub\n      dup2\n      add\n      swap1\n      tag_20\n      swap2\n      swap1\n      tag_17\n      jump\t// in\n    tag_20:\n      tag_21\n      jump\t// in\n    tag_19:\n      mload(0x40)\n      tag_22\n      swap4\n      swap3\n      swap2\n      swap1\n      tag_23\n      jump\t// in\n    tag_22:\n      mload(0x40)\n      dup1\n      swap2\n      sub\n      swap1\n      return\n        /* \"contracts/TccUser.sol\":260:303  mapping(address => string) public userNames */\n    tag_6:\n      tag_24\n      0x04\n      dup1\n      calldatasize\n      sub\n      dup2\n      add\n      swap1\n      tag_25\n      swap2\n      swap1\n      tag_11\n      jump\t// in\n    tag_25:\n      tag_26\n      jump\t// in\n    tag_24:\n      mload(0x40)\n      tag_27\n      swap2\n      swap1\n      tag_14\n      jump\t// in\n    tag_27:\n      mload(0x40)\n      dup1\n      swap2\n      sub\n      swap1\n      return\n        /* \"contracts/TccUser.sol\":505:809  function registerUser(string memory _username, string memory _fullname, address _walletAddress)... */\n    tag_7:\n      tag_28\n      0x04\n      dup1\n      calldatasize\n      sub\n      dup2\n      add\n      swap1\n      tag_29\n      swap2\n      swap1\n      tag_30\n      jump\t// in\n    tag_29:\n      tag_31\n      jump\t// in\n    tag_28:\n      stop\n        /* \"contracts/TccUser.sol\":1302:1587  function login(string memory _username, address _walletAddress) public view returns (User memory) {... */\n    tag_8:\n      tag_32\n      0x04\n      dup1\n      calldatasize\n      sub\n      dup2\n      add\n      swap1\n      tag_33\n      swap2\n      swap1\n      tag_34\n      jump\t// in\n    tag_33:\n      tag_35\n      jump\t// in\n    tag_32:\n      mload(0x40)\n      tag_36\n      swap2\n      swap1\n      tag_37\n      jump\t// in\n    tag_36:\n      mload(0x40)\n      dup1\n      swap2\n      sub\n      swap1\n      return\n        /* \"contracts/TccUser.sol\":843:1104  function getCurrentUsername(address _walletAddress) public view returns (string memory) {... */\n    tag_12:\n        /* \"contracts/TccUser.sol\":916:929  string memory */\n      0x60\n        /* \"contracts/TccUser.sol\":1004:1005  0 */\n      0x00\n        /* \"contracts/TccUser.sol\":968:977  userNames */\n      0x01\n        /* \"contracts/TccUser.sol\":968:993  userNames[_walletAddress] */\n      0x00\n        /* \"contracts/TccUser.sol\":978:992  _walletAddress */\n      dup5\n        /* \"contracts/TccUser.sol\":968:993  userNames[_walletAddress] */\n      0xffffffffffffffffffffffffffffffffffffffff\n      and\n      0xffffffffffffffffffffffffffffffffffffffff\n      and\n      dup2\n      mstore\n      0x20\n      add\n      swap1\n      dup2\n      mstore\n      0x20\n      add\n      0x00\n      keccak256\n        /* \"contracts/TccUser.sol\":962:1001  bytes(userNames[_walletAddress]).length */\n      dup1\n      sload\n      tag_39\n      swap1\n      tag_40\n      jump\t// in\n    tag_39:\n      swap1\n      pop\n        /* \"contracts/TccUser.sol\":962:1005  bytes(userNames[_walletAddress]).length > 0 */\n      gt\n        /* \"contracts/TccUser.sol\":941:1055  require(... */\n      tag_41\n      jumpi\n      mload(0x40)\n      0x08c379a000000000000000000000000000000000000000000000000000000000\n      dup2\n      mstore\n      0x04\n      add\n      tag_42\n      swap1\n      tag_43\n      jump\t// in\n    tag_42:\n      mload(0x40)\n      dup1\n      swap2\n      sub\n      swap1\n      revert\n    tag_41:\n        /* \"contracts/TccUser.sol\":1072:1081  userNames */\n      0x01\n        /* \"contracts/TccUser.sol\":1072:1097  userNames[_walletAddress] */\n      0x00\n        /* \"contracts/TccUser.sol\":1082:1096  _walletAddress */\n      dup4\n        /* \"contracts/TccUser.sol\":1072:1097  userNames[_walletAddress] */\n      0xffffffffffffffffffffffffffffffffffffffff\n      and\n      0xffffffffffffffffffffffffffffffffffffffff\n      and\n      dup2\n      mstore\n      0x20\n      add\n      swap1\n      dup2\n      mstore\n      0x20\n      add\n      0x00\n      keccak256\n        /* \"contracts/TccUser.sol\":1065:1097  return userNames[_walletAddress] */\n      dup1\n      sload\n      tag_44\n      swap1\n      tag_40\n      jump\t// in\n    tag_44:\n      dup1\n      0x1f\n      add\n      0x20\n      dup1\n      swap2\n      div\n      mul\n      0x20\n      add\n      mload(0x40)\n      swap1\n      dup2\n      add\n      0x40\n      mstore\n      dup1\n      swap3\n      swap2\n      swap1\n      dup2\n      dup2\n      mstore\n      0x20\n      add\n      dup3\n      dup1\n      sload\n      tag_45\n      swap1\n      tag_40\n      jump\t// in\n    tag_45:\n      dup1\n      iszero\n      tag_46\n      jumpi\n      dup1\n      0x1f\n      lt\n      tag_47\n      jumpi\n      0x0100\n      dup1\n      dup4\n      sload\n      div\n      mul\n      dup4\n      mstore\n      swap2\n      0x20\n      add\n      swap2\n      jump(tag_46)\n    tag_47:\n      dup3\n      add\n      swap2\n      swap1\n      0x00\n      mstore\n      keccak256(0x00, 0x20)\n      swap1\n    tag_48:\n      dup2\n      sload\n      dup2\n      mstore\n      swap1\n      0x01\n      add\n      swap1\n      0x20\n      add\n      dup1\n      dup4\n      gt\n      tag_48\n      jumpi\n      dup3\n      swap1\n      sub\n      0x1f\n      and\n      dup3\n      add\n      swap2\n    tag_46:\n      pop\n      pop\n      pop\n      pop\n      pop\n      swap1\n      pop\n        /* \"contracts/TccUser.sol\":843:1104  function getCurrentUsername(address _walletAddress) public view returns (string memory) {... */\n      swap2\n      swap1\n      pop\n      jump\t// out\n        /* \"contracts/TccUser.sol\":1110:1296  function userExist(string memory _username) public view {... */\n    tag_18:\n        /* \"contracts/TccUser.sol\":1239:1240  0 */\n      0x00\n        /* \"contracts/TccUser.sol\":1203:1208  users */\n      dup1\n        /* \"contracts/TccUser.sol\":1209:1218  _username */\n      dup3\n        /* \"contracts/TccUser.sol\":1203:1219  users[_username] */\n      mload(0x40)\n      tag_50\n      swap2\n      swap1\n      tag_51\n      jump\t// in\n    tag_50:\n      swap1\n      dup2\n      mstore\n      0x20\n      add\n      mload(0x40)\n      dup1\n      swap2\n      sub\n      swap1\n      keccak256\n        /* \"contracts/TccUser.sol\":1203:1228  users[_username].username */\n      0x00\n      add\n        /* \"contracts/TccUser.sol\":1197:1236  bytes(users[_username].username).length */\n      dup1\n      sload\n      tag_52\n      swap1\n      tag_40\n      jump\t// in\n    tag_52:\n      swap1\n      pop\n        /* \"contracts/TccUser.sol\":1197:1240  bytes(users[_username].username).length > 0 */\n      gt\n        /* \"contracts/TccUser.sol\":1176:1289  require(... */\n      tag_53\n      jumpi\n      mload(0x40)\n      0x08c379a000000000000000000000000000000000000000000000000000000000\n      dup2\n      mstore\n      0x04\n      add\n      tag_54\n      swap1\n      tag_55\n      jump\t// in\n    tag_54:\n      mload(0x40)\n      dup1\n      swap2\n      sub\n      swap1\n      revert\n    tag_53:\n        /* \"contracts/TccUser.sol\":1110:1296  function userExist(string memory _username) public view {... */\n      pop\n      jump\t// out\n        /* \"contracts/TccUser.sol\":217:253  mapping(string => User) public users */\n    tag_21:\n      0x00\n      dup2\n      dup1\n      mload\n      0x20\n      dup2\n      add\n      dup3\n      add\n      dup1\n      mload\n      dup5\n      dup3\n      mstore\n      0x20\n      dup4\n      add\n      0x20\n      dup6\n      add\n      keccak256\n      dup2\n      dup4\n      mstore\n      dup1\n      swap6\n      pop\n      pop\n      pop\n      pop\n      pop\n      pop\n      0x00\n      swap2\n      pop\n      swap1\n      pop\n      dup1\n      0x00\n      add\n      dup1\n      sload\n      tag_56\n      swap1\n      tag_40\n      jump\t// in\n    tag_56:\n      dup1\n      0x1f\n      add\n      0x20\n      dup1\n      swap2\n      div\n      mul\n      0x20\n      add\n      mload(0x40)\n      swap1\n      dup2\n      add\n      0x40\n      mstore\n      dup1\n      swap3\n      swap2\n      swap1\n      dup2\n      dup2\n      mstore\n      0x20\n      add\n      dup3\n      dup1\n      sload\n      tag_57\n      swap1\n      tag_40\n      jump\t// in\n    tag_57:\n      dup1\n      iszero\n      tag_58\n      jumpi\n      dup1\n      0x1f\n      lt\n      tag_59\n      jumpi\n      0x0100\n      dup1\n      dup4\n      sload\n      div\n      mul\n      dup4\n      mstore\n      swap2\n      0x20\n      add\n      swap2\n      jump(tag_58)\n    tag_59:\n      dup3\n      add\n      swap2\n      swap1\n      0x00\n      mstore\n      keccak256(0x00, 0x20)\n      swap1\n    tag_60:\n      dup2\n      sload\n      dup2\n      mstore\n      swap1\n      0x01\n      add\n      swap1\n      0x20\n      add\n      dup1\n      dup4\n      gt\n      tag_60\n      jumpi\n      dup3\n      swap1\n      sub\n      0x1f\n      and\n      dup3\n      add\n      swap2\n    tag_58:\n      pop\n      pop\n      pop\n      pop\n      pop\n      swap1\n      dup1\n      0x01\n      add\n      dup1\n      sload\n      tag_61\n      swap1\n      tag_40\n      jump\t// in\n    tag_61:\n      dup1\n      0x1f\n      add\n      0x20\n      dup1\n      swap2\n      div\n      mul\n      0x20\n      add\n      mload(0x40)\n      swap1\n      dup2\n      add\n      0x40\n      mstore\n      dup1\n      swap3\n      swap2\n      swap1\n      dup2\n      dup2\n      mstore\n      0x20\n      add\n      dup3\n      dup1\n      sload\n      tag_62\n      swap1\n      tag_40\n      jump\t// in\n    tag_62:\n      dup1\n      iszero\n      tag_63\n      jumpi\n      dup1\n      0x1f\n      lt\n      tag_64\n      jumpi\n      0x0100\n      dup1\n      dup4\n      sload\n      div\n      mul\n      dup4\n      mstore\n      swap2\n      0x20\n      add\n      swap2\n      jump(tag_63)\n    tag_64:\n      dup3\n      add\n      swap2\n      swap1\n      0x00\n      mstore\n      keccak256(0x00, 0x20)\n      swap1\n    tag_65:\n      dup2\n      sload\n      dup2\n      mstore\n      swap1\n      0x01\n      add\n      swap1\n      0x20\n      add\n      dup1\n      dup4\n      gt\n      tag_65\n      jumpi\n      dup3\n      swap1\n      sub\n      0x1f\n      and\n      dup3\n      add\n      swap2\n    tag_63:\n      pop\n      pop\n      pop\n      pop\n      pop\n      swap1\n      dup1\n      0x02\n      add\n      0x00\n      swap1\n      sload\n      swap1\n      0x0100\n      exp\n      swap1\n      div\n      0xffffffffffffffffffffffffffffffffffffffff\n      and\n      swap1\n      pop\n      dup4\n      jump\t// out\n        /* \"contracts/TccUser.sol\":260:303  mapping(address => string) public userNames */\n    tag_26:\n      mstore(0x20, 0x01)\n      dup1\n      0x00\n      mstore\n      keccak256(0x00, 0x40)\n      0x00\n      swap2\n      pop\n      swap1\n      pop\n      dup1\n      sload\n      tag_66\n      swap1\n      tag_40\n      jump\t// in\n    tag_66:\n      dup1\n      0x1f\n      add\n      0x20\n      dup1\n      swap2\n      div\n      mul\n      0x20\n      add\n      mload(0x40)\n      swap1\n      dup2\n      add\n      0x40\n      mstore\n      dup1\n      swap3\n      swap2\n      swap1\n      dup2\n      dup2\n      mstore\n      0x20\n      add\n      dup3\n      dup1\n      sload\n      tag_67\n      swap1\n      tag_40\n      jump\t// in\n    tag_67:\n      dup1\n      iszero\n      tag_68\n      jumpi\n      dup1\n      0x1f\n      lt\n      tag_69\n      jumpi\n      0x0100\n      dup1\n      dup4\n      sload\n      div\n      mul\n      dup4\n      mstore\n      swap2\n      0x20\n      add\n      swap2\n      jump(tag_68)\n    tag_69:\n      dup3\n      add\n      swap2\n      swap1\n      0x00\n      mstore\n      keccak256(0x00, 0x20)\n      swap1\n    tag_70:\n      dup2\n      sload\n      dup2\n      mstore\n      swap1\n      0x01\n      add\n      swap1\n      0x20\n      add\n      dup1\n      dup4\n      gt\n      tag_70\n      jumpi\n      dup3\n      swap1\n      sub\n      0x1f\n      and\n      dup3\n      add\n      swap2\n    tag_68:\n      pop\n      pop\n      pop\n      pop\n      pop\n      dup2\n      jump\t// out\n        /* \"contracts/TccUser.sol\":505:809  function registerUser(string memory _username, string memory _fullname, address _walletAddress)... */\n    tag_31:\n        /* \"contracts/TccUser.sol\":641:650  _username */\n      dup3\n        /* \"contracts/TccUser.sol\":435:436  0 */\n      0x00\n        /* \"contracts/TccUser.sol\":398:403  users */\n      dup1\n        /* \"contracts/TccUser.sol\":404:413  _username */\n      dup3\n        /* \"contracts/TccUser.sol\":398:414  users[_username] */\n      mload(0x40)\n      tag_72\n      swap2\n      swap1\n      tag_51\n      jump\t// in\n    tag_72:\n      swap1\n      dup2\n      mstore\n      0x20\n      add\n      mload(0x40)\n      dup1\n      swap2\n      sub\n      swap1\n      keccak256\n        /* \"contracts/TccUser.sol\":398:423  users[_username].username */\n      0x00\n      add\n        /* \"contracts/TccUser.sol\":392:431  bytes(users[_username].username).length */\n      dup1\n      sload\n      tag_73\n      swap1\n      tag_40\n      jump\t// in\n    tag_73:\n      swap1\n      pop\n        /* \"contracts/TccUser.sol\":392:436  bytes(users[_username].username).length == 0 */\n      eq\n        /* \"contracts/TccUser.sol\":371:481  require(... */\n      tag_74\n      jumpi\n      mload(0x40)\n      0x08c379a000000000000000000000000000000000000000000000000000000000\n      dup2\n      mstore\n      0x04\n      add\n      tag_75\n      swap1\n      tag_76\n      jump\t// in\n    tag_75:\n      mload(0x40)\n      dup1\n      swap2\n      sub\n      swap1\n      revert\n    tag_74:\n        /* \"contracts/TccUser.sol\":685:727  User(_username, _fullname, _walletAddress) */\n      mload(0x40)\n      dup1\n      0x60\n      add\n      0x40\n      mstore\n      dup1\n        /* \"contracts/TccUser.sol\":690:699  _username */\n      dup6\n        /* \"contracts/TccUser.sol\":685:727  User(_username, _fullname, _walletAddress) */\n      dup2\n      mstore\n      0x20\n      add\n        /* \"contracts/TccUser.sol\":701:710  _fullname */\n      dup5\n        /* \"contracts/TccUser.sol\":685:727  User(_username, _fullname, _walletAddress) */\n      dup2\n      mstore\n      0x20\n      add\n        /* \"contracts/TccUser.sol\":712:726  _walletAddress */\n      dup4\n        /* \"contracts/TccUser.sol\":685:727  User(_username, _fullname, _walletAddress) */\n      0xffffffffffffffffffffffffffffffffffffffff\n      and\n      dup2\n      mstore\n      pop\n        /* \"contracts/TccUser.sol\":666:671  users */\n      0x00\n        /* \"contracts/TccUser.sol\":672:681  _username */\n      dup6\n        /* \"contracts/TccUser.sol\":666:682  users[_username] */\n      mload(0x40)\n      tag_78\n      swap2\n      swap1\n      tag_51\n      jump\t// in\n    tag_78:\n      swap1\n      dup2\n      mstore\n      0x20\n      add\n      mload(0x40)\n      dup1\n      swap2\n      sub\n      swap1\n      keccak256\n        /* \"contracts/TccUser.sol\":666:727  users[_username] = User(_username, _fullname, _walletAddress) */\n      0x00\n      dup3\n      add\n      mload\n      dup2\n      0x00\n      add\n      swap1\n      dup2\n      tag_79\n      swap2\n      swap1\n      tag_80\n      jump\t// in\n    tag_79:\n      pop\n      0x20\n      dup3\n      add\n      mload\n      dup2\n      0x01\n      add\n      swap1\n      dup2\n      tag_81\n      swap2\n      swap1\n      tag_80\n      jump\t// in\n    tag_81:\n      pop\n      0x40\n      dup3\n      add\n      mload\n      dup2\n      0x02\n      add\n      exp(0x0100, 0x00)\n      dup2\n      sload\n      dup2\n      0xffffffffffffffffffffffffffffffffffffffff\n      mul\n      not\n      and\n      swap1\n      dup4\n      0xffffffffffffffffffffffffffffffffffffffff\n      and\n      mul\n      or\n      swap1\n      sstore\n      pop\n      swap1\n      pop\n      pop\n        /* \"contracts/TccUser.sol\":793:802  _username */\n      dup4\n        /* \"contracts/TccUser.sol\":765:774  userNames */\n      0x01\n        /* \"contracts/TccUser.sol\":765:790  userNames[_walletAddress] */\n      0x00\n        /* \"contracts/TccUser.sol\":775:789  _walletAddress */\n      dup5\n        /* \"contracts/TccUser.sol\":765:790  userNames[_walletAddress] */\n      0xffffffffffffffffffffffffffffffffffffffff\n      and\n      0xffffffffffffffffffffffffffffffffffffffff\n      and\n      dup2\n      mstore\n      0x20\n      add\n      swap1\n      dup2\n      mstore\n      0x20\n      add\n      0x00\n      keccak256\n        /* \"contracts/TccUser.sol\":765:802  userNames[_walletAddress] = _username */\n      swap1\n      dup2\n      tag_82\n      swap2\n      swap1\n      tag_80\n      jump\t// in\n    tag_82:\n      pop\n        /* \"contracts/TccUser.sol\":505:809  function registerUser(string memory _username, string memory _fullname, address _walletAddress)... */\n      pop\n      pop\n      pop\n      pop\n      jump\t// out\n        /* \"contracts/TccUser.sol\":1302:1587  function login(string memory _username, address _walletAddress) public view returns (User memory) {... */\n    tag_35:\n        /* \"contracts/TccUser.sol\":1387:1398  User memory */\n      tag_83\n      tag_84\n      jump\t// in\n    tag_83:\n        /* \"contracts/TccUser.sol\":1410:1430  userExist(_username) */\n      tag_86\n        /* \"contracts/TccUser.sol\":1420:1429  _username */\n      dup4\n        /* \"contracts/TccUser.sol\":1410:1419  userExist */\n      tag_18\n        /* \"contracts/TccUser.sol\":1410:1430  userExist(_username) */\n      jump\t// in\n    tag_86:\n        /* \"contracts/TccUser.sol\":1440:1456  User memory user */\n      0x00\n        /* \"contracts/TccUser.sol\":1459:1464  users */\n      dup1\n        /* \"contracts/TccUser.sol\":1465:1474  _username */\n      dup5\n        /* \"contracts/TccUser.sol\":1459:1475  users[_username] */\n      mload(0x40)\n      tag_87\n      swap2\n      swap1\n      tag_51\n      jump\t// in\n    tag_87:\n      swap1\n      dup2\n      mstore\n      0x20\n      add\n      mload(0x40)\n      dup1\n      swap2\n      sub\n      swap1\n      keccak256\n        /* \"contracts/TccUser.sol\":1440:1475  User memory user = users[_username] */\n      mload(0x40)\n      dup1\n      0x60\n      add\n      0x40\n      mstore\n      swap1\n      dup2\n      0x00\n      dup3\n      add\n      dup1\n      sload\n      tag_88\n      swap1\n      tag_40\n      jump\t// in\n    tag_88:\n      dup1\n      0x1f\n      add\n      0x20\n      dup1\n      swap2\n      div\n      mul\n      0x20\n      add\n      mload(0x40)\n      swap1\n      dup2\n      add\n      0x40\n      mstore\n      dup1\n      swap3\n      swap2\n      swap1\n      dup2\n      dup2\n      mstore\n      0x20\n      add\n      dup3\n      dup1\n      sload\n      tag_89\n      swap1\n      tag_40\n      jump\t// in\n    tag_89:\n      dup1\n      iszero\n      tag_90\n      jumpi\n      dup1\n      0x1f\n      lt\n      tag_91\n      jumpi\n      0x0100\n      dup1\n      dup4\n      sload\n      div\n      mul\n      dup4\n      mstore\n      swap2\n      0x20\n      add\n      swap2\n      jump(tag_90)\n    tag_91:\n      dup3\n      add\n      swap2\n      swap1\n      0x00\n      mstore\n      keccak256(0x00, 0x20)\n      swap1\n    tag_92:\n      dup2\n      sload\n      dup2\n      mstore\n      swap1\n      0x01\n      add\n      swap1\n      0x20\n      add\n      dup1\n      dup4\n      gt\n      tag_92\n      jumpi\n      dup3\n      swap1\n      sub\n      0x1f\n      and\n      dup3\n      add\n      swap2\n    tag_90:\n      pop\n      pop\n      pop\n      pop\n      pop\n      dup2\n      mstore\n      0x20\n      add\n      0x01\n      dup3\n      add\n      dup1\n      sload\n      tag_93\n      swap1\n      tag_40\n      jump\t// in\n    tag_93:\n      dup1\n      0x1f\n      add\n      0x20\n      dup1\n      swap2\n      div\n      mul\n      0x20\n      add\n      mload(0x40)\n      swap1\n      dup2\n      add\n      0x40\n      mstore\n      dup1\n      swap3\n      swap2\n      swap1\n      dup2\n      dup2\n      mstore\n      0x20\n      add\n      dup3\n      dup1\n      sload\n      tag_94\n      swap1\n      tag_40\n      jump\t// in\n    tag_94:\n      dup1\n      iszero\n      tag_95\n      jumpi\n      dup1\n      0x1f\n      lt\n      tag_96\n      jumpi\n      0x0100\n      dup1\n      dup4\n      sload\n      div\n      mul\n      dup4\n      mstore\n      swap2\n      0x20\n      add\n      swap2\n      jump(tag_95)\n    tag_96:\n      dup3\n      add\n      swap2\n      swap1\n      0x00\n      mstore\n      keccak256(0x00, 0x20)\n      swap1\n    tag_97:\n      dup2\n      sload\n      dup2\n      mstore\n      swap1\n      0x01\n      add\n      swap1\n      0x20\n      add\n      dup1\n      dup4\n      gt\n      tag_97\n      jumpi\n      dup3\n      swap1\n      sub\n      0x1f\n      and\n      dup3\n      add\n      swap2\n    tag_95:\n      pop\n      pop\n      pop\n      pop\n      pop\n      dup2\n      mstore\n      0x20\n      add\n      0x02\n      dup3\n      add\n      0x00\n      swap1\n      sload\n      swap1\n      0x0100\n      exp\n      swap1\n      div\n      0xffffffffffffffffffffffffffffffffffffffff\n      and\n      0xffffffffffffffffffffffffffffffffffffffff\n      and\n      0xffffffffffffffffffffffffffffffffffffffff\n      and\n      dup2\n      mstore\n      pop\n      pop\n      swap1\n      pop\n        /* \"contracts/TccUser.sol\":1515:1529  _walletAddress */\n      dup3\n        /* \"contracts/TccUser.sol\":1493:1529  user.walletAddress == _walletAddress */\n      0xffffffffffffffffffffffffffffffffffffffff\n      and\n        /* \"contracts/TccUser.sol\":1493:1497  user */\n      dup2\n        /* \"contracts/TccUser.sol\":1493:1511  user.walletAddress */\n      0x40\n      add\n      mload\n        /* \"contracts/TccUser.sol\":1493:1529  user.walletAddress == _walletAddress */\n      0xffffffffffffffffffffffffffffffffffffffff\n      and\n      eq\n        /* \"contracts/TccUser.sol\":1485:1557  require(user.walletAddress == _walletAddress, \"Invalid wallet Address!\") */\n      tag_98\n      jumpi\n      mload(0x40)\n      0x08c379a000000000000000000000000000000000000000000000000000000000\n      dup2\n      mstore\n      0x04\n      add\n      tag_99\n      swap1\n      tag_100\n      jump\t// in\n    tag_99:\n      mload(0x40)\n      dup1\n      swap2\n      sub\n      swap1\n      revert\n    tag_98:\n        /* \"contracts/TccUser.sol\":1575:1579  user */\n      dup1\n        /* \"contracts/TccUser.sol\":1567:1580  return (user) */\n      swap2\n      pop\n      pop\n        /* \"contracts/TccUser.sol\":1302:1587  function login(string memory _username, address _walletAddress) public view returns (User memory) {... */\n      swap3\n      swap2\n      pop\n      pop\n      jump\t// out\n    tag_84:\n      mload(0x40)\n      dup1\n      0x60\n      add\n      0x40\n      mstore\n      dup1\n      0x60\n      dup2\n      mstore\n      0x20\n      add\n      0x60\n      dup2\n      mstore\n      0x20\n      add\n      and(0xffffffffffffffffffffffffffffffffffffffff, 0x00)\n      dup2\n      mstore\n      pop\n      swap1\n      jump\t// out\n        /* \"#utility.yul\":7:82   */\n    tag_101:\n        /* \"#utility.yul\":40:46   */\n      0x00\n        /* \"#utility.yul\":73:75   */\n      0x40\n        /* \"#utility.yul\":67:76   */\n      mload\n        /* \"#utility.yul\":57:76   */\n      swap1\n      pop\n        /* \"#utility.yul\":7:82   */\n      swap1\n      jump\t// out\n        /* \"#utility.yul\":88:205   */\n    tag_102:\n        /* \"#utility.yul\":197:198   */\n      0x00\n        /* \"#utility.yul\":194:195   */\n      dup1\n        /* \"#utility.yul\":187:199   */\n      revert\n        /* \"#utility.yul\":211:328   */\n    tag_103:\n        /* \"#utility.yul\":320:321   */\n      0x00\n        /* \"#utility.yul\":317:318   */\n      dup1\n        /* \"#utility.yul\":310:322   */\n      revert\n        /* \"#utility.yul\":334:460   */\n    tag_104:\n        /* \"#utility.yul\":371:378   */\n      0x00\n        /* \"#utility.yul\":411:453   */\n      0xffffffffffffffffffffffffffffffffffffffff\n        /* \"#utility.yul\":404:409   */\n      dup3\n        /* \"#utility.yul\":400:454   */\n      and\n        /* \"#utility.yul\":389:454   */\n      swap1\n      pop\n        /* \"#utility.yul\":334:460   */\n      swap2\n      swap1\n      pop\n      jump\t// out\n        /* \"#utility.yul\":466:562   */\n    tag_105:\n        /* \"#utility.yul\":503:510   */\n      0x00\n        /* \"#utility.yul\":532:556   */\n      tag_160\n        /* \"#utility.yul\":550:555   */\n      dup3\n        /* \"#utility.yul\":532:556   */\n      tag_104\n      jump\t// in\n    tag_160:\n        /* \"#utility.yul\":521:556   */\n      swap1\n      pop\n        /* \"#utility.yul\":466:562   */\n      swap2\n      swap1\n      pop\n      jump\t// out\n        /* \"#utility.yul\":568:690   */\n    tag_106:\n        /* \"#utility.yul\":641:665   */\n      tag_162\n        /* \"#utility.yul\":659:664   */\n      dup2\n        /* \"#utility.yul\":641:665   */\n      tag_105\n      jump\t// in\n    tag_162:\n        /* \"#utility.yul\":634:639   */\n      dup2\n        /* \"#utility.yul\":631:666   */\n      eq\n        /* \"#utility.yul\":621:684   */\n      tag_163\n      jumpi\n        /* \"#utility.yul\":680:681   */\n      0x00\n        /* \"#utility.yul\":677:678   */\n      dup1\n        /* \"#utility.yul\":670:682   */\n      revert\n        /* \"#utility.yul\":621:684   */\n    tag_163:\n        /* \"#utility.yul\":568:690   */\n      pop\n      jump\t// out\n        /* \"#utility.yul\":696:835   */\n    tag_107:\n        /* \"#utility.yul\":742:747   */\n      0x00\n        /* \"#utility.yul\":780:786   */\n      dup2\n        /* \"#utility.yul\":767:787   */\n      calldataload\n        /* \"#utility.yul\":758:787   */\n      swap1\n      pop\n        /* \"#utility.yul\":796:829   */\n      tag_165\n        /* \"#utility.yul\":823:828   */\n      dup2\n        /* \"#utility.yul\":796:829   */\n      tag_106\n      jump\t// in\n    tag_165:\n        /* \"#utility.yul\":696:835   */\n      swap3\n      swap2\n      pop\n      pop\n      jump\t// out\n        /* \"#utility.yul\":841:1170   */\n    tag_11:\n        /* \"#utility.yul\":900:906   */\n      0x00\n        /* \"#utility.yul\":949:951   */\n      0x20\n        /* \"#utility.yul\":937:946   */\n      dup3\n        /* \"#utility.yul\":928:935   */\n      dup5\n        /* \"#utility.yul\":924:947   */\n      sub\n        /* \"#utility.yul\":920:952   */\n      slt\n        /* \"#utility.yul\":917:1036   */\n      iszero\n      tag_167\n      jumpi\n        /* \"#utility.yul\":955:1034   */\n      tag_168\n      tag_102\n      jump\t// in\n    tag_168:\n        /* \"#utility.yul\":917:1036   */\n    tag_167:\n        /* \"#utility.yul\":1075:1076   */\n      0x00\n        /* \"#utility.yul\":1100:1153   */\n      tag_169\n        /* \"#utility.yul\":1145:1152   */\n      dup5\n        /* \"#utility.yul\":1136:1142   */\n      dup3\n        /* \"#utility.yul\":1125:1134   */\n      dup6\n        /* \"#utility.yul\":1121:1143   */\n      add\n        /* \"#utility.yul\":1100:1153   */\n      tag_107\n      jump\t// in\n    tag_169:\n        /* \"#utility.yul\":1090:1153   */\n      swap2\n      pop\n        /* \"#utility.yul\":1046:1163   */\n      pop\n        /* \"#utility.yul\":841:1170   */\n      swap3\n      swap2\n      pop\n      pop\n      jump\t// out\n        /* \"#utility.yul\":1176:1275   */\n    tag_108:\n        /* \"#utility.yul\":1228:1234   */\n      0x00\n        /* \"#utility.yul\":1262:1267   */\n      dup2\n        /* \"#utility.yul\":1256:1268   */\n      mload\n        /* \"#utility.yul\":1246:1268   */\n      swap1\n      pop\n        /* \"#utility.yul\":1176:1275   */\n      swap2\n      swap1\n      pop\n      jump\t// out\n        /* \"#utility.yul\":1281:1450   */\n    tag_109:\n        /* \"#utility.yul\":1365:1376   */\n      0x00\n        /* \"#utility.yul\":1399:1405   */\n      dup3\n        /* \"#utility.yul\":1394:1397   */\n      dup3\n        /* \"#utility.yul\":1387:1406   */\n      mstore\n        /* \"#utility.yul\":1439:1443   */\n      0x20\n        /* \"#utility.yul\":1434:1437   */\n      dup3\n        /* \"#utility.yul\":1430:1444   */\n      add\n        /* \"#utility.yul\":1415:1444   */\n      swap1\n      pop\n        /* \"#utility.yul\":1281:1450   */\n      swap3\n      swap2\n      pop\n      pop\n      jump\t// out\n        /* \"#utility.yul\":1456:1702   */\n    tag_110:\n        /* \"#utility.yul\":1537:1538   */\n      0x00\n        /* \"#utility.yul\":1547:1660   */\n    tag_173:\n        /* \"#utility.yul\":1561:1567   */\n      dup4\n        /* \"#utility.yul\":1558:1559   */\n      dup2\n        /* \"#utility.yul\":1555:1568   */\n      lt\n        /* \"#utility.yul\":1547:1660   */\n      iszero\n      tag_175\n      jumpi\n        /* \"#utility.yul\":1646:1647   */\n      dup1\n        /* \"#utility.yul\":1641:1644   */\n      dup3\n        /* \"#utility.yul\":1637:1648   */\n      add\n        /* \"#utility.yul\":1631:1649   */\n      mload\n        /* \"#utility.yul\":1627:1628   */\n      dup2\n        /* \"#utility.yul\":1622:1625   */\n      dup5\n        /* \"#utility.yul\":1618:1629   */\n      add\n        /* \"#utility.yul\":1611:1650   */\n      mstore\n        /* \"#utility.yul\":1583:1585   */\n      0x20\n        /* \"#utility.yul\":1580:1581   */\n      dup2\n        /* \"#utility.yul\":1576:1586   */\n      add\n        /* \"#utility.yul\":1571:1586   */\n      swap1\n      pop\n        /* \"#utility.yul\":1547:1660   */\n      jump(tag_173)\n    tag_175:\n        /* \"#utility.yul\":1694:1695   */\n      0x00\n        /* \"#utility.yul\":1685:1691   */\n      dup5\n        /* \"#utility.yul\":1680:1683   */\n      dup5\n        /* \"#utility.yul\":1676:1692   */\n      add\n        /* \"#utility.yul\":1669:1696   */\n      mstore\n        /* \"#utility.yul\":1518:1702   */\n      pop\n        /* \"#utility.yul\":1456:1702   */\n      pop\n      pop\n      pop\n      jump\t// out\n        /* \"#utility.yul\":1708:1810   */\n    tag_111:\n        /* \"#utility.yul\":1749:1755   */\n      0x00\n        /* \"#utility.yul\":1800:1802   */\n      0x1f\n        /* \"#utility.yul\":1796:1803   */\n      not\n        /* \"#utility.yul\":1791:1793   */\n      0x1f\n        /* \"#utility.yul\":1784:1789   */\n      dup4\n        /* \"#utility.yul\":1780:1794   */\n      add\n        /* \"#utility.yul\":1776:1804   */\n      and\n        /* \"#utility.yul\":1766:1804   */\n      swap1\n      pop\n        /* \"#utility.yul\":1708:1810   */\n      swap2\n      swap1\n      pop\n      jump\t// out\n        /* \"#utility.yul\":1816:2193   */\n    tag_112:\n        /* \"#utility.yul\":1904:1907   */\n      0x00\n        /* \"#utility.yul\":1932:1971   */\n      tag_178\n        /* \"#utility.yul\":1965:1970   */\n      dup3\n        /* \"#utility.yul\":1932:1971   */\n      tag_108\n      jump\t// in\n    tag_178:\n        /* \"#utility.yul\":1987:2058   */\n      tag_179\n        /* \"#utility.yul\":2051:2057   */\n      dup2\n        /* \"#utility.yul\":2046:2049   */\n      dup6\n        /* \"#utility.yul\":1987:2058   */\n      tag_109\n      jump\t// in\n    tag_179:\n        /* \"#utility.yul\":1980:2058   */\n      swap4\n      pop\n        /* \"#utility.yul\":2067:2132   */\n      tag_180\n        /* \"#utility.yul\":2125:2131   */\n      dup2\n        /* \"#utility.yul\":2120:2123   */\n      dup6\n        /* \"#utility.yul\":2113:2117   */\n      0x20\n        /* \"#utility.yul\":2106:2111   */\n      dup7\n        /* \"#utility.yul\":2102:2118   */\n      add\n        /* \"#utility.yul\":2067:2132   */\n      tag_110\n      jump\t// in\n    tag_180:\n        /* \"#utility.yul\":2157:2186   */\n      tag_181\n        /* \"#utility.yul\":2179:2185   */\n      dup2\n        /* \"#utility.yul\":2157:2186   */\n      tag_111\n      jump\t// in\n    tag_181:\n        /* \"#utility.yul\":2152:2155   */\n      dup5\n        /* \"#utility.yul\":2148:2187   */\n      add\n        /* \"#utility.yul\":2141:2187   */\n      swap2\n      pop\n        /* \"#utility.yul\":1908:2193   */\n      pop\n        /* \"#utility.yul\":1816:2193   */\n      swap3\n      swap2\n      pop\n      pop\n      jump\t// out\n        /* \"#utility.yul\":2199:2512   */\n    tag_14:\n        /* \"#utility.yul\":2312:2316   */\n      0x00\n        /* \"#utility.yul\":2350:2352   */\n      0x20\n        /* \"#utility.yul\":2339:2348   */\n      dup3\n        /* \"#utility.yul\":2335:2353   */\n      add\n        /* \"#utility.yul\":2327:2353   */\n      swap1\n      pop\n        /* \"#utility.yul\":2399:2408   */\n      dup2\n        /* \"#utility.yul\":2393:2397   */\n      dup2\n        /* \"#utility.yul\":2389:2409   */\n      sub\n        /* \"#utility.yul\":2385:2386   */\n      0x00\n        /* \"#utility.yul\":2374:2383   */\n      dup4\n        /* \"#utility.yul\":2370:2387   */\n      add\n        /* \"#utility.yul\":2363:2410   */\n      mstore\n        /* \"#utility.yul\":2427:2505   */\n      tag_183\n        /* \"#utility.yul\":2500:2504   */\n      dup2\n        /* \"#utility.yul\":2491:2497   */\n      dup5\n        /* \"#utility.yul\":2427:2505   */\n      tag_112\n      jump\t// in\n    tag_183:\n        /* \"#utility.yul\":2419:2505   */\n      swap1\n      pop\n        /* \"#utility.yul\":2199:2512   */\n      swap3\n      swap2\n      pop\n      pop\n      jump\t// out\n        /* \"#utility.yul\":2518:2635   */\n    tag_113:\n        /* \"#utility.yul\":2627:2628   */\n      0x00\n        /* \"#utility.yul\":2624:2625   */\n      dup1\n        /* \"#utility.yul\":2617:2629   */\n      revert\n        /* \"#utility.yul\":2641:2758   */\n    tag_114:\n        /* \"#utility.yul\":2750:2751   */\n      0x00\n        /* \"#utility.yul\":2747:2748   */\n      dup1\n        /* \"#utility.yul\":2740:2752   */\n      revert\n        /* \"#utility.yul\":2764:2944   */\n    tag_115:\n        /* \"#utility.yul\":2812:2889   */\n      0x4e487b7100000000000000000000000000000000000000000000000000000000\n        /* \"#utility.yul\":2809:2810   */\n      0x00\n        /* \"#utility.yul\":2802:2890   */\n      mstore\n        /* \"#utility.yul\":2909:2913   */\n      0x41\n        /* \"#utility.yul\":2906:2907   */\n      0x04\n        /* \"#utility.yul\":2899:2914   */\n      mstore\n        /* \"#utility.yul\":2933:2937   */\n      0x24\n        /* \"#utility.yul\":2930:2931   */\n      0x00\n        /* \"#utility.yul\":2923:2938   */\n      revert\n        /* \"#utility.yul\":2950:3231   */\n    tag_116:\n        /* \"#utility.yul\":3033:3060   */\n      tag_188\n        /* \"#utility.yul\":3055:3059   */\n      dup3\n        /* \"#utility.yul\":3033:3060   */\n      tag_111\n      jump\t// in\n    tag_188:\n        /* \"#utility.yul\":3025:3031   */\n      dup2\n        /* \"#utility.yul\":3021:3061   */\n      add\n        /* \"#utility.yul\":3163:3169   */\n      dup2\n        /* \"#utility.yul\":3151:3161   */\n      dup2\n        /* \"#utility.yul\":3148:3170   */\n      lt\n        /* \"#utility.yul\":3127:3145   */\n      0xffffffffffffffff\n        /* \"#utility.yul\":3115:3125   */\n      dup3\n        /* \"#utility.yul\":3112:3146   */\n      gt\n        /* \"#utility.yul\":3109:3171   */\n      or\n        /* \"#utility.yul\":3106:3194   */\n      iszero\n      tag_189\n      jumpi\n        /* \"#utility.yul\":3174:3192   */\n      tag_190\n      tag_115\n      jump\t// in\n    tag_190:\n        /* \"#utility.yul\":3106:3194   */\n    tag_189:\n        /* \"#utility.yul\":3214:3224   */\n      dup1\n        /* \"#utility.yul\":3210:3212   */\n      0x40\n        /* \"#utility.yul\":3203:3225   */\n      mstore\n        /* \"#utility.yul\":2993:3231   */\n      pop\n        /* \"#utility.yul\":2950:3231   */\n      pop\n      pop\n      jump\t// out\n        /* \"#utility.yul\":3237:3366   */\n    tag_117:\n        /* \"#utility.yul\":3271:3277   */\n      0x00\n        /* \"#utility.yul\":3298:3318   */\n      tag_192\n      tag_101\n      jump\t// in\n    tag_192:\n        /* \"#utility.yul\":3288:3318   */\n      swap1\n      pop\n        /* \"#utility.yul\":3327:3360   */\n      tag_193\n        /* \"#utility.yul\":3355:3359   */\n      dup3\n        /* \"#utility.yul\":3347:3353   */\n      dup3\n        /* \"#utility.yul\":3327:3360   */\n      tag_116\n      jump\t// in\n    tag_193:\n        /* \"#utility.yul\":3237:3366   */\n      swap2\n      swap1\n      pop\n      jump\t// out\n        /* \"#utility.yul\":3372:3680   */\n    tag_118:\n        /* \"#utility.yul\":3434:3438   */\n      0x00\n        /* \"#utility.yul\":3524:3542   */\n      0xffffffffffffffff\n        /* \"#utility.yul\":3516:3522   */\n      dup3\n        /* \"#utility.yul\":3513:3543   */\n      gt\n        /* \"#utility.yul\":3510:3566   */\n      iszero\n      tag_195\n      jumpi\n        /* \"#utility.yul\":3546:3564   */\n      tag_196\n      tag_115\n      jump\t// in\n    tag_196:\n        /* \"#utility.yul\":3510:3566   */\n    tag_195:\n        /* \"#utility.yul\":3584:3613   */\n      tag_197\n        /* \"#utility.yul\":3606:3612   */\n      dup3\n        /* \"#utility.yul\":3584:3613   */\n      tag_111\n      jump\t// in\n    tag_197:\n        /* \"#utility.yul\":3576:3613   */\n      swap1\n      pop\n        /* \"#utility.yul\":3668:3672   */\n      0x20\n        /* \"#utility.yul\":3662:3666   */\n      dup2\n        /* \"#utility.yul\":3658:3673   */\n      add\n        /* \"#utility.yul\":3650:3673   */\n      swap1\n      pop\n        /* \"#utility.yul\":3372:3680   */\n      swap2\n      swap1\n      pop\n      jump\t// out\n        /* \"#utility.yul\":3686:3832   */\n    tag_119:\n        /* \"#utility.yul\":3783:3789   */\n      dup3\n        /* \"#utility.yul\":3778:3781   */\n      dup2\n        /* \"#utility.yul\":3773:3776   */\n      dup4\n        /* \"#utility.yul\":3760:3790   */\n      calldatacopy\n        /* \"#utility.yul\":3824:3825   */\n      0x00\n        /* \"#utility.yul\":3815:3821   */\n      dup4\n        /* \"#utility.yul\":3810:3813   */\n      dup4\n        /* \"#utility.yul\":3806:3822   */\n      add\n        /* \"#utility.yul\":3799:3826   */\n      mstore\n        /* \"#utility.yul\":3686:3832   */\n      pop\n      pop\n      pop\n      jump\t// out\n        /* \"#utility.yul\":3838:4263   */\n    tag_120:\n        /* \"#utility.yul\":3916:3921   */\n      0x00\n        /* \"#utility.yul\":3941:4007   */\n      tag_200\n        /* \"#utility.yul\":3957:4006   */\n      tag_201\n        /* \"#utility.yul\":3999:4005   */\n      dup5\n        /* \"#utility.yul\":3957:4006   */\n      tag_118\n      jump\t// in\n    tag_201:\n        /* \"#utility.yul\":3941:4007   */\n      tag_117\n      jump\t// in\n    tag_200:\n        /* \"#utility.yul\":3932:4007   */\n      swap1\n      pop\n        /* \"#utility.yul\":4030:4036   */\n      dup3\n        /* \"#utility.yul\":4023:4028   */\n      dup2\n        /* \"#utility.yul\":4016:4037   */\n      mstore\n        /* \"#utility.yul\":4068:4072   */\n      0x20\n        /* \"#utility.yul\":4061:4066   */\n      dup2\n        /* \"#utility.yul\":4057:4073   */\n      add\n        /* \"#utility.yul\":4106:4109   */\n      dup5\n        /* \"#utility.yul\":4097:4103   */\n      dup5\n        /* \"#utility.yul\":4092:4095   */\n      dup5\n        /* \"#utility.yul\":4088:4104   */\n      add\n        /* \"#utility.yul\":4085:4110   */\n      gt\n        /* \"#utility.yul\":4082:4194   */\n      iszero\n      tag_202\n      jumpi\n        /* \"#utility.yul\":4113:4192   */\n      tag_203\n      tag_114\n      jump\t// in\n    tag_203:\n        /* \"#utility.yul\":4082:4194   */\n    tag_202:\n        /* \"#utility.yul\":4203:4257   */\n      tag_204\n        /* \"#utility.yul\":4250:4256   */\n      dup5\n        /* \"#utility.yul\":4245:4248   */\n      dup3\n        /* \"#utility.yul\":4240:4243   */\n      dup6\n        /* \"#utility.yul\":4203:4257   */\n      tag_119\n      jump\t// in\n    tag_204:\n        /* \"#utility.yul\":3922:4263   */\n      pop\n        /* \"#utility.yul\":3838:4263   */\n      swap4\n      swap3\n      pop\n      pop\n      pop\n      jump\t// out\n        /* \"#utility.yul\":4283:4623   */\n    tag_121:\n        /* \"#utility.yul\":4339:4344   */\n      0x00\n        /* \"#utility.yul\":4388:4391   */\n      dup3\n        /* \"#utility.yul\":4381:4385   */\n      0x1f\n        /* \"#utility.yul\":4373:4379   */\n      dup4\n        /* \"#utility.yul\":4369:4386   */\n      add\n        /* \"#utility.yul\":4365:4392   */\n      slt\n        /* \"#utility.yul\":4355:4477   */\n      tag_206\n      jumpi\n        /* \"#utility.yul\":4396:4475   */\n      tag_207\n      tag_113\n      jump\t// in\n    tag_207:\n        /* \"#utility.yul\":4355:4477   */\n    tag_206:\n        /* \"#utility.yul\":4513:4519   */\n      dup2\n        /* \"#utility.yul\":4500:4520   */\n      calldataload\n        /* \"#utility.yul\":4538:4617   */\n      tag_208\n        /* \"#utility.yul\":4613:4616   */\n      dup5\n        /* \"#utility.yul\":4605:4611   */\n      dup3\n        /* \"#utility.yul\":4598:4602   */\n      0x20\n        /* \"#utility.yul\":4590:4596   */\n      dup7\n        /* \"#utility.yul\":4586:4603   */\n      add\n        /* \"#utility.yul\":4538:4617   */\n      tag_120\n      jump\t// in\n    tag_208:\n        /* \"#utility.yul\":4529:4617   */\n      swap2\n      pop\n        /* \"#utility.yul\":4345:4623   */\n      pop\n        /* \"#utility.yul\":4283:4623   */\n      swap3\n      swap2\n      pop\n      pop\n      jump\t// out\n        /* \"#utility.yul\":4629:5138   */\n    tag_17:\n        /* \"#utility.yul\":4698:4704   */\n      0x00\n        /* \"#utility.yul\":4747:4749   */\n      0x20\n        /* \"#utility.yul\":4735:4744   */\n      dup3\n        /* \"#utility.yul\":4726:4733   */\n      dup5\n        /* \"#utility.yul\":4722:4745   */\n      sub\n        /* \"#utility.yul\":4718:4750   */\n      slt\n        /* \"#utility.yul\":4715:4834   */\n      iszero\n      tag_210\n      jumpi\n        /* \"#utility.yul\":4753:4832   */\n      tag_211\n      tag_102\n      jump\t// in\n    tag_211:\n        /* \"#utility.yul\":4715:4834   */\n    tag_210:\n        /* \"#utility.yul\":4901:4902   */\n      0x00\n        /* \"#utility.yul\":4890:4899   */\n      dup3\n        /* \"#utility.yul\":4886:4903   */\n      add\n        /* \"#utility.yul\":4873:4904   */\n      calldataload\n        /* \"#utility.yul\":4931:4949   */\n      0xffffffffffffffff\n        /* \"#utility.yul\":4923:4929   */\n      dup2\n        /* \"#utility.yul\":4920:4950   */\n      gt\n        /* \"#utility.yul\":4917:5034   */\n      iszero\n      tag_212\n      jumpi\n        /* \"#utility.yul\":4953:5032   */\n      tag_213\n      tag_103\n      jump\t// in\n    tag_213:\n        /* \"#utility.yul\":4917:5034   */\n    tag_212:\n        /* \"#utility.yul\":5058:5121   */\n      tag_214\n        /* \"#utility.yul\":5113:5120   */\n      dup5\n        /* \"#utility.yul\":5104:5110   */\n      dup3\n        /* \"#utility.yul\":5093:5102   */\n      dup6\n        /* \"#utility.yul\":5089:5111   */\n      add\n        /* \"#utility.yul\":5058:5121   */\n      tag_121\n      jump\t// in\n    tag_214:\n        /* \"#utility.yul\":5048:5121   */\n      swap2\n      pop\n        /* \"#utility.yul\":4844:5131   */\n      pop\n        /* \"#utility.yul\":4629:5138   */\n      swap3\n      swap2\n      pop\n      pop\n      jump\t// out\n        /* \"#utility.yul\":5144:5262   */\n    tag_122:\n        /* \"#utility.yul\":5231:5255   */\n      tag_216\n        /* \"#utility.yul\":5249:5254   */\n      dup2\n        /* \"#utility.yul\":5231:5255   */\n      tag_105\n      jump\t// in\n    tag_216:\n        /* \"#utility.yul\":5226:5229   */\n      dup3\n        /* \"#utility.yul\":5219:5256   */\n      mstore\n        /* \"#utility.yul\":5144:5262   */\n      pop\n      pop\n      jump\t// out\n        /* \"#utility.yul\":5268:5892   */\n    tag_23:\n        /* \"#utility.yul\":5457:5461   */\n      0x00\n        /* \"#utility.yul\":5495:5497   */\n      0x60\n        /* \"#utility.yul\":5484:5493   */\n      dup3\n        /* \"#utility.yul\":5480:5498   */\n      add\n        /* \"#utility.yul\":5472:5498   */\n      swap1\n      pop\n        /* \"#utility.yul\":5544:5553   */\n      dup2\n        /* \"#utility.yul\":5538:5542   */\n      dup2\n        /* \"#utility.yul\":5534:5554   */\n      sub\n        /* \"#utility.yul\":5530:5531   */\n      0x00\n        /* \"#utility.yul\":5519:5528   */\n      dup4\n        /* \"#utility.yul\":5515:5532   */\n      add\n        /* \"#utility.yul\":5508:5555   */\n      mstore\n        /* \"#utility.yul\":5572:5650   */\n      tag_218\n        /* \"#utility.yul\":5645:5649   */\n      dup2\n        /* \"#utility.yul\":5636:5642   */\n      dup7\n        /* \"#utility.yul\":5572:5650   */\n      tag_112\n      jump\t// in\n    tag_218:\n        /* \"#utility.yul\":5564:5650   */\n      swap1\n      pop\n        /* \"#utility.yul\":5697:5706   */\n      dup2\n        /* \"#utility.yul\":5691:5695   */\n      dup2\n        /* \"#utility.yul\":5687:5707   */\n      sub\n        /* \"#utility.yul\":5682:5684   */\n      0x20\n        /* \"#utility.yul\":5671:5680   */\n      dup4\n        /* \"#utility.yul\":5667:5685   */\n      add\n        /* \"#utility.yul\":5660:5708   */\n      mstore\n        /* \"#utility.yul\":5725:5803   */\n      tag_219\n        /* \"#utility.yul\":5798:5802   */\n      dup2\n        /* \"#utility.yul\":5789:5795   */\n      dup6\n        /* \"#utility.yul\":5725:5803   */\n      tag_112\n      jump\t// in\n    tag_219:\n        /* \"#utility.yul\":5717:5803   */\n      swap1\n      pop\n        /* \"#utility.yul\":5813:5885   */\n      tag_220\n        /* \"#utility.yul\":5881:5883   */\n      0x40\n        /* \"#utility.yul\":5870:5879   */\n      dup4\n        /* \"#utility.yul\":5866:5884   */\n      add\n        /* \"#utility.yul\":5857:5863   */\n      dup5\n        /* \"#utility.yul\":5813:5885   */\n      tag_122\n      jump\t// in\n    tag_220:\n        /* \"#utility.yul\":5268:5892   */\n      swap5\n      swap4\n      pop\n      pop\n      pop\n      pop\n      jump\t// out\n        /* \"#utility.yul\":5898:6877   */\n    tag_30:\n        /* \"#utility.yul\":5995:6001   */\n      0x00\n        /* \"#utility.yul\":6003:6009   */\n      dup1\n        /* \"#utility.yul\":6011:6017   */\n      0x00\n        /* \"#utility.yul\":6060:6062   */\n      0x60\n        /* \"#utility.yul\":6048:6057   */\n      dup5\n        /* \"#utility.yul\":6039:6046   */\n      dup7\n        /* \"#utility.yul\":6035:6058   */\n      sub\n        /* \"#utility.yul\":6031:6063   */\n      slt\n        /* \"#utility.yul\":6028:6147   */\n      iszero\n      tag_222\n      jumpi\n        /* \"#utility.yul\":6066:6145   */\n      tag_223\n      tag_102\n      jump\t// in\n    tag_223:\n        /* \"#utility.yul\":6028:6147   */\n    tag_222:\n        /* \"#utility.yul\":6214:6215   */\n      0x00\n        /* \"#utility.yul\":6203:6212   */\n      dup5\n        /* \"#utility.yul\":6199:6216   */\n      add\n        /* \"#utility.yul\":6186:6217   */\n      calldataload\n        /* \"#utility.yul\":6244:6262   */\n      0xffffffffffffffff\n        /* \"#utility.yul\":6236:6242   */\n      dup2\n        /* \"#utility.yul\":6233:6263   */\n      gt\n        /* \"#utility.yul\":6230:6347   */\n      iszero\n      tag_224\n      jumpi\n        /* \"#utility.yul\":6266:6345   */\n      tag_225\n      tag_103\n      jump\t// in\n    tag_225:\n        /* \"#utility.yul\":6230:6347   */\n    tag_224:\n        /* \"#utility.yul\":6371:6434   */\n      tag_226\n        /* \"#utility.yul\":6426:6433   */\n      dup7\n        /* \"#utility.yul\":6417:6423   */\n      dup3\n        /* \"#utility.yul\":6406:6415   */\n      dup8\n        /* \"#utility.yul\":6402:6424   */\n      add\n        /* \"#utility.yul\":6371:6434   */\n      tag_121\n      jump\t// in\n    tag_226:\n        /* \"#utility.yul\":6361:6434   */\n      swap4\n      pop\n        /* \"#utility.yul\":6157:6444   */\n      pop\n        /* \"#utility.yul\":6511:6513   */\n      0x20\n        /* \"#utility.yul\":6500:6509   */\n      dup5\n        /* \"#utility.yul\":6496:6514   */\n      add\n        /* \"#utility.yul\":6483:6515   */\n      calldataload\n        /* \"#utility.yul\":6542:6560   */\n      0xffffffffffffffff\n        /* \"#utility.yul\":6534:6540   */\n      dup2\n        /* \"#utility.yul\":6531:6561   */\n      gt\n        /* \"#utility.yul\":6528:6645   */\n      iszero\n      tag_227\n      jumpi\n        /* \"#utility.yul\":6564:6643   */\n      tag_228\n      tag_103\n      jump\t// in\n    tag_228:\n        /* \"#utility.yul\":6528:6645   */\n    tag_227:\n        /* \"#utility.yul\":6669:6732   */\n      tag_229\n        /* \"#utility.yul\":6724:6731   */\n      dup7\n        /* \"#utility.yul\":6715:6721   */\n      dup3\n        /* \"#utility.yul\":6704:6713   */\n      dup8\n        /* \"#utility.yul\":6700:6722   */\n      add\n        /* \"#utility.yul\":6669:6732   */\n      tag_121\n      jump\t// in\n    tag_229:\n        /* \"#utility.yul\":6659:6732   */\n      swap3\n      pop\n        /* \"#utility.yul\":6454:6742   */\n      pop\n        /* \"#utility.yul\":6781:6783   */\n      0x40\n        /* \"#utility.yul\":6807:6860   */\n      tag_230\n        /* \"#utility.yul\":6852:6859   */\n      dup7\n        /* \"#utility.yul\":6843:6849   */\n      dup3\n        /* \"#utility.yul\":6832:6841   */\n      dup8\n        /* \"#utility.yul\":6828:6850   */\n      add\n        /* \"#utility.yul\":6807:6860   */\n      tag_107\n      jump\t// in\n    tag_230:\n        /* \"#utility.yul\":6797:6860   */\n      swap2\n      pop\n        /* \"#utility.yul\":6752:6870   */\n      pop\n        /* \"#utility.yul\":5898:6877   */\n      swap3\n      pop\n      swap3\n      pop\n      swap3\n      jump\t// out\n        /* \"#utility.yul\":6883:7537   */\n    tag_34:\n        /* \"#utility.yul\":6961:6967   */\n      0x00\n        /* \"#utility.yul\":6969:6975   */\n      dup1\n        /* \"#utility.yul\":7018:7020   */\n      0x40\n        /* \"#utility.yul\":7006:7015   */\n      dup4\n        /* \"#utility.yul\":6997:7004   */\n      dup6\n        /* \"#utility.yul\":6993:7016   */\n      sub\n        /* \"#utility.yul\":6989:7021   */\n      slt\n        /* \"#utility.yul\":6986:7105   */\n      iszero\n      tag_232\n      jumpi\n        /* \"#utility.yul\":7024:7103   */\n      tag_233\n      tag_102\n      jump\t// in\n    tag_233:\n        /* \"#utility.yul\":6986:7105   */\n    tag_232:\n        /* \"#utility.yul\":7172:7173   */\n      0x00\n        /* \"#utility.yul\":7161:7170   */\n      dup4\n        /* \"#utility.yul\":7157:7174   */\n      add\n        /* \"#utility.yul\":7144:7175   */\n      calldataload\n        /* \"#utility.yul\":7202:7220   */\n      0xffffffffffffffff\n        /* \"#utility.yul\":7194:7200   */\n      dup2\n        /* \"#utility.yul\":7191:7221   */\n      gt\n        /* \"#utility.yul\":7188:7305   */\n      iszero\n      tag_234\n      jumpi\n        /* \"#utility.yul\":7224:7303   */\n      tag_235\n      tag_103\n      jump\t// in\n    tag_235:\n        /* \"#utility.yul\":7188:7305   */\n    tag_234:\n        /* \"#utility.yul\":7329:7392   */\n      tag_236\n        /* \"#utility.yul\":7384:7391   */\n      dup6\n        /* \"#utility.yul\":7375:7381   */\n      dup3\n        /* \"#utility.yul\":7364:7373   */\n      dup7\n        /* \"#utility.yul\":7360:7382   */\n      add\n        /* \"#utility.yul\":7329:7392   */\n      tag_121\n      jump\t// in\n    tag_236:\n        /* \"#utility.yul\":7319:7392   */\n      swap3\n      pop\n        /* \"#utility.yul\":7115:7402   */\n      pop\n        /* \"#utility.yul\":7441:7443   */\n      0x20\n        /* \"#utility.yul\":7467:7520   */\n      tag_237\n        /* \"#utility.yul\":7512:7519   */\n      dup6\n        /* \"#utility.yul\":7503:7509   */\n      dup3\n        /* \"#utility.yul\":7492:7501   */\n      dup7\n        /* \"#utility.yul\":7488:7510   */\n      add\n        /* \"#utility.yul\":7467:7520   */\n      tag_107\n      jump\t// in\n    tag_237:\n        /* \"#utility.yul\":7457:7520   */\n      swap2\n      pop\n        /* \"#utility.yul\":7412:7530   */\n      pop\n        /* \"#utility.yul\":6883:7537   */\n      swap3\n      pop\n      swap3\n      swap1\n      pop\n      jump\t// out\n        /* \"#utility.yul\":7543:7702   */\n    tag_123:\n        /* \"#utility.yul\":7617:7628   */\n      0x00\n        /* \"#utility.yul\":7651:7657   */\n      dup3\n        /* \"#utility.yul\":7646:7649   */\n      dup3\n        /* \"#utility.yul\":7639:7658   */\n      mstore\n        /* \"#utility.yul\":7691:7695   */\n      0x20\n        /* \"#utility.yul\":7686:7689   */\n      dup3\n        /* \"#utility.yul\":7682:7696   */\n      add\n        /* \"#utility.yul\":7667:7696   */\n      swap1\n      pop\n        /* \"#utility.yul\":7543:7702   */\n      swap3\n      swap2\n      pop\n      pop\n      jump\t// out\n        /* \"#utility.yul\":7708:8065   */\n    tag_124:\n        /* \"#utility.yul\":7786:7789   */\n      0x00\n        /* \"#utility.yul\":7814:7853   */\n      tag_240\n        /* \"#utility.yul\":7847:7852   */\n      dup3\n        /* \"#utility.yul\":7814:7853   */\n      tag_108\n      jump\t// in\n    tag_240:\n        /* \"#utility.yul\":7869:7930   */\n      tag_241\n        /* \"#utility.yul\":7923:7929   */\n      dup2\n        /* \"#utility.yul\":7918:7921   */\n      dup6\n        /* \"#utility.yul\":7869:7930   */\n      tag_123\n      jump\t// in\n    tag_241:\n        /* \"#utility.yul\":7862:7930   */\n      swap4\n      pop\n        /* \"#utility.yul\":7939:8004   */\n      tag_242\n        /* \"#utility.yul\":7997:8003   */\n      dup2\n        /* \"#utility.yul\":7992:7995   */\n      dup6\n        /* \"#utility.yul\":7985:7989   */\n      0x20\n        /* \"#utility.yul\":7978:7983   */\n      dup7\n        /* \"#utility.yul\":7974:7990   */\n      add\n        /* \"#utility.yul\":7939:8004   */\n      tag_110\n      jump\t// in\n    tag_242:\n        /* \"#utility.yul\":8029:8058   */\n      tag_243\n        /* \"#utility.yul\":8051:8057   */\n      dup2\n        /* \"#utility.yul\":8029:8058   */\n      tag_111\n      jump\t// in\n    tag_243:\n        /* \"#utility.yul\":8024:8027   */\n      dup5\n        /* \"#utility.yul\":8020:8059   */\n      add\n        /* \"#utility.yul\":8013:8059   */\n      swap2\n      pop\n        /* \"#utility.yul\":7790:8065   */\n      pop\n        /* \"#utility.yul\":7708:8065   */\n      swap3\n      swap2\n      pop\n      pop\n      jump\t// out\n        /* \"#utility.yul\":8071:8179   */\n    tag_125:\n        /* \"#utility.yul\":8148:8172   */\n      tag_245\n        /* \"#utility.yul\":8166:8171   */\n      dup2\n        /* \"#utility.yul\":8148:8172   */\n      tag_105\n      jump\t// in\n    tag_245:\n        /* \"#utility.yul\":8143:8146   */\n      dup3\n        /* \"#utility.yul\":8136:8173   */\n      mstore\n        /* \"#utility.yul\":8071:8179   */\n      pop\n      pop\n      jump\t// out\n        /* \"#utility.yul\":8235:9095   */\n    tag_126:\n        /* \"#utility.yul\":8346:8349   */\n      0x00\n        /* \"#utility.yul\":8382:8386   */\n      0x60\n        /* \"#utility.yul\":8377:8380   */\n      dup4\n        /* \"#utility.yul\":8373:8387   */\n      add\n        /* \"#utility.yul\":8473:8477   */\n      0x00\n        /* \"#utility.yul\":8466:8471   */\n      dup4\n        /* \"#utility.yul\":8462:8478   */\n      add\n        /* \"#utility.yul\":8456:8479   */\n      mload\n        /* \"#utility.yul\":8526:8529   */\n      dup5\n        /* \"#utility.yul\":8520:8524   */\n      dup3\n        /* \"#utility.yul\":8516:8530   */\n      sub\n        /* \"#utility.yul\":8509:8513   */\n      0x00\n        /* \"#utility.yul\":8504:8507   */\n      dup7\n        /* \"#utility.yul\":8500:8514   */\n      add\n        /* \"#utility.yul\":8493:8531   */\n      mstore\n        /* \"#utility.yul\":8552:8625   */\n      tag_247\n        /* \"#utility.yul\":8620:8624   */\n      dup3\n        /* \"#utility.yul\":8606:8618   */\n      dup3\n        /* \"#utility.yul\":8552:8625   */\n      tag_124\n      jump\t// in\n    tag_247:\n        /* \"#utility.yul\":8544:8625   */\n      swap2\n      pop\n        /* \"#utility.yul\":8397:8636   */\n      pop\n        /* \"#utility.yul\":8722:8726   */\n      0x20\n        /* \"#utility.yul\":8715:8720   */\n      dup4\n        /* \"#utility.yul\":8711:8727   */\n      add\n        /* \"#utility.yul\":8705:8728   */\n      mload\n        /* \"#utility.yul\":8775:8778   */\n      dup5\n        /* \"#utility.yul\":8769:8773   */\n      dup3\n        /* \"#utility.yul\":8765:8779   */\n      sub\n        /* \"#utility.yul\":8758:8762   */\n      0x20\n        /* \"#utility.yul\":8753:8756   */\n      dup7\n        /* \"#utility.yul\":8749:8763   */\n      add\n        /* \"#utility.yul\":8742:8780   */\n      mstore\n        /* \"#utility.yul\":8801:8874   */\n      tag_248\n        /* \"#utility.yul\":8869:8873   */\n      dup3\n        /* \"#utility.yul\":8855:8867   */\n      dup3\n        /* \"#utility.yul\":8801:8874   */\n      tag_124\n      jump\t// in\n    tag_248:\n        /* \"#utility.yul\":8793:8874   */\n      swap2\n      pop\n        /* \"#utility.yul\":8646:8885   */\n      pop\n        /* \"#utility.yul\":8976:8980   */\n      0x40\n        /* \"#utility.yul\":8969:8974   */\n      dup4\n        /* \"#utility.yul\":8965:8981   */\n      add\n        /* \"#utility.yul\":8959:8982   */\n      mload\n        /* \"#utility.yul\":8995:9058   */\n      tag_249\n        /* \"#utility.yul\":9052:9056   */\n      0x40\n        /* \"#utility.yul\":9047:9050   */\n      dup7\n        /* \"#utility.yul\":9043:9057   */\n      add\n        /* \"#utility.yul\":9029:9041   */\n      dup3\n        /* \"#utility.yul\":8995:9058   */\n      tag_125\n      jump\t// in\n    tag_249:\n        /* \"#utility.yul\":8895:9068   */\n      pop\n        /* \"#utility.yul\":9085:9089   */\n      dup1\n        /* \"#utility.yul\":9078:9089   */\n      swap2\n      pop\n        /* \"#utility.yul\":8351:9095   */\n      pop\n        /* \"#utility.yul\":8235:9095   */\n      swap3\n      swap2\n      pop\n      pop\n      jump\t// out\n        /* \"#utility.yul\":9101:9458   */\n    tag_37:\n        /* \"#utility.yul\":9236:9240   */\n      0x00\n        /* \"#utility.yul\":9274:9276   */\n      0x20\n        /* \"#utility.yul\":9263:9272   */\n      dup3\n        /* \"#utility.yul\":9259:9277   */\n      add\n        /* \"#utility.yul\":9251:9277   */\n      swap1\n      pop\n        /* \"#utility.yul\":9323:9332   */\n      dup2\n        /* \"#utility.yul\":9317:9321   */\n      dup2\n        /* \"#utility.yul\":9313:9333   */\n      sub\n        /* \"#utility.yul\":9309:9310   */\n      0x00\n        /* \"#utility.yul\":9298:9307   */\n      dup4\n        /* \"#utility.yul\":9294:9311   */\n      add\n        /* \"#utility.yul\":9287:9334   */\n      mstore\n        /* \"#utility.yul\":9351:9451   */\n      tag_251\n        /* \"#utility.yul\":9446:9450   */\n      dup2\n        /* \"#utility.yul\":9437:9443   */\n      dup5\n        /* \"#utility.yul\":9351:9451   */\n      tag_126\n      jump\t// in\n    tag_251:\n        /* \"#utility.yul\":9343:9451   */\n      swap1\n      pop\n        /* \"#utility.yul\":9101:9458   */\n      swap3\n      swap2\n      pop\n      pop\n      jump\t// out\n        /* \"#utility.yul\":9464:9644   */\n    tag_127:\n        /* \"#utility.yul\":9512:9589   */\n      0x4e487b7100000000000000000000000000000000000000000000000000000000\n        /* \"#utility.yul\":9509:9510   */\n      0x00\n        /* \"#utility.yul\":9502:9590   */\n      mstore\n        /* \"#utility.yul\":9609:9613   */\n      0x22\n        /* \"#utility.yul\":9606:9607   */\n      0x04\n        /* \"#utility.yul\":9599:9614   */\n      mstore\n        /* \"#utility.yul\":9633:9637   */\n      0x24\n        /* \"#utility.yul\":9630:9631   */\n      0x00\n        /* \"#utility.yul\":9623:9638   */\n      revert\n        /* \"#utility.yul\":9650:9970   */\n    tag_40:\n        /* \"#utility.yul\":9694:9700   */\n      0x00\n        /* \"#utility.yul\":9731:9732   */\n      0x02\n        /* \"#utility.yul\":9725:9729   */\n      dup3\n        /* \"#utility.yul\":9721:9733   */\n      div\n        /* \"#utility.yul\":9711:9733   */\n      swap1\n      pop\n        /* \"#utility.yul\":9778:9779   */\n      0x01\n        /* \"#utility.yul\":9772:9776   */\n      dup3\n        /* \"#utility.yul\":9768:9780   */\n      and\n        /* \"#utility.yul\":9799:9817   */\n      dup1\n        /* \"#utility.yul\":9789:9870   */\n      tag_254\n      jumpi\n        /* \"#utility.yul\":9855:9859   */\n      0x7f\n        /* \"#utility.yul\":9847:9853   */\n      dup3\n        /* \"#utility.yul\":9843:9860   */\n      and\n        /* \"#utility.yul\":9833:9860   */\n      swap2\n      pop\n        /* \"#utility.yul\":9789:9870   */\n    tag_254:\n        /* \"#utility.yul\":9917:9919   */\n      0x20\n        /* \"#utility.yul\":9909:9915   */\n      dup3\n        /* \"#utility.yul\":9906:9920   */\n      lt\n        /* \"#utility.yul\":9886:9904   */\n      dup2\n        /* \"#utility.yul\":9883:9921   */\n      sub\n        /* \"#utility.yul\":9880:9964   */\n      tag_255\n      jumpi\n        /* \"#utility.yul\":9936:9954   */\n      tag_256\n      tag_127\n      jump\t// in\n    tag_256:\n        /* \"#utility.yul\":9880:9964   */\n    tag_255:\n        /* \"#utility.yul\":9701:9970   */\n      pop\n        /* \"#utility.yul\":9650:9970   */\n      swap2\n      swap1\n      pop\n      jump\t// out\n        /* \"#utility.yul\":9976:10150   */\n    tag_128:\n        /* \"#utility.yul\":10116:10142   */\n      0x556e61626c6520746f2066696e6420757365726e616d65210000000000000000\n        /* \"#utility.yul\":10112:10113   */\n      0x00\n        /* \"#utility.yul\":10104:10110   */\n      dup3\n        /* \"#utility.yul\":10100:10114   */\n      add\n        /* \"#utility.yul\":10093:10143   */\n      mstore\n        /* \"#utility.yul\":9976:10150   */\n      pop\n      jump\t// out\n        /* \"#utility.yul\":10156:10522   */\n    tag_129:\n        /* \"#utility.yul\":10298:10301   */\n      0x00\n        /* \"#utility.yul\":10319:10386   */\n      tag_259\n        /* \"#utility.yul\":10383:10385   */\n      0x18\n        /* \"#utility.yul\":10378:10381   */\n      dup4\n        /* \"#utility.yul\":10319:10386   */\n      tag_109\n      jump\t// in\n    tag_259:\n        /* \"#utility.yul\":10312:10386   */\n      swap2\n      pop\n        /* \"#utility.yul\":10395:10488   */\n      tag_260\n        /* \"#utility.yul\":10484:10487   */\n      dup3\n        /* \"#utility.yul\":10395:10488   */\n      tag_128\n      jump\t// in\n    tag_260:\n        /* \"#utility.yul\":10513:10515   */\n      0x20\n        /* \"#utility.yul\":10508:10511   */\n      dup3\n        /* \"#utility.yul\":10504:10516   */\n      add\n        /* \"#utility.yul\":10497:10516   */\n      swap1\n      pop\n        /* \"#utility.yul\":10156:10522   */\n      swap2\n      swap1\n      pop\n      jump\t// out\n        /* \"#utility.yul\":10528:10947   */\n    tag_43:\n        /* \"#utility.yul\":10694:10698   */\n      0x00\n        /* \"#utility.yul\":10732:10734   */\n      0x20\n        /* \"#utility.yul\":10721:10730   */\n      dup3\n        /* \"#utility.yul\":10717:10735   */\n      add\n        /* \"#utility.yul\":10709:10735   */\n      swap1\n      pop\n        /* \"#utility.yul\":10781:10790   */\n      dup2\n        /* \"#utility.yul\":10775:10779   */\n      dup2\n        /* \"#utility.yul\":10771:10791   */\n      sub\n        /* \"#utility.yul\":10767:10768   */\n      0x00\n        /* \"#utility.yul\":10756:10765   */\n      dup4\n        /* \"#utility.yul\":10752:10769   */\n      add\n        /* \"#utility.yul\":10745:10792   */\n      mstore\n        /* \"#utility.yul\":10809:10940   */\n      tag_262\n        /* \"#utility.yul\":10935:10939   */\n      dup2\n        /* \"#utility.yul\":10809:10940   */\n      tag_129\n      jump\t// in\n    tag_262:\n        /* \"#utility.yul\":10801:10940   */\n      swap1\n      pop\n        /* \"#utility.yul\":10528:10947   */\n      swap2\n      swap1\n      pop\n      jump\t// out\n        /* \"#utility.yul\":10953:11101   */\n    tag_130:\n        /* \"#utility.yul\":11055:11066   */\n      0x00\n        /* \"#utility.yul\":11092:11095   */\n      dup2\n        /* \"#utility.yul\":11077:11095   */\n      swap1\n      pop\n        /* \"#utility.yul\":10953:11101   */\n      swap3\n      swap2\n      pop\n      pop\n      jump\t// out\n        /* \"#utility.yul\":11107:11497   */\n    tag_131:\n        /* \"#utility.yul\":11213:11216   */\n      0x00\n        /* \"#utility.yul\":11241:11280   */\n      tag_265\n        /* \"#utility.yul\":11274:11279   */\n      dup3\n        /* \"#utility.yul\":11241:11280   */\n      tag_108\n      jump\t// in\n    tag_265:\n        /* \"#utility.yul\":11296:11385   */\n      tag_266\n        /* \"#utility.yul\":11378:11384   */\n      dup2\n        /* \"#utility.yul\":11373:11376   */\n      dup6\n        /* \"#utility.yul\":11296:11385   */\n      tag_130\n      jump\t// in\n    tag_266:\n        /* \"#utility.yul\":11289:11385   */\n      swap4\n      pop\n        /* \"#utility.yul\":11394:11459   */\n      tag_267\n        /* \"#utility.yul\":11452:11458   */\n      dup2\n        /* \"#utility.yul\":11447:11450   */\n      dup6\n        /* \"#utility.yul\":11440:11444   */\n      0x20\n        /* \"#utility.yul\":11433:11438   */\n      dup7\n        /* \"#utility.yul\":11429:11445   */\n      add\n        /* \"#utility.yul\":11394:11459   */\n      tag_110\n      jump\t// in\n    tag_267:\n        /* \"#utility.yul\":11484:11490   */\n      dup1\n        /* \"#utility.yul\":11479:11482   */\n      dup5\n        /* \"#utility.yul\":11475:11491   */\n      add\n        /* \"#utility.yul\":11468:11491   */\n      swap2\n      pop\n        /* \"#utility.yul\":11217:11497   */\n      pop\n        /* \"#utility.yul\":11107:11497   */\n      swap3\n      swap2\n      pop\n      pop\n      jump\t// out\n        /* \"#utility.yul\":11503:11778   */\n    tag_51:\n        /* \"#utility.yul\":11635:11638   */\n      0x00\n        /* \"#utility.yul\":11657:11752   */\n      tag_269\n        /* \"#utility.yul\":11748:11751   */\n      dup3\n        /* \"#utility.yul\":11739:11745   */\n      dup5\n        /* \"#utility.yul\":11657:11752   */\n      tag_131\n      jump\t// in\n    tag_269:\n        /* \"#utility.yul\":11650:11752   */\n      swap2\n      pop\n        /* \"#utility.yul\":11769:11772   */\n      dup2\n        /* \"#utility.yul\":11762:11772   */\n      swap1\n      pop\n        /* \"#utility.yul\":11503:11778   */\n      swap3\n      swap2\n      pop\n      pop\n      jump\t// out\n        /* \"#utility.yul\":11784:11957   */\n    tag_132:\n        /* \"#utility.yul\":11924:11949   */\n      0x55736572206973206e6f74207265676973746572656421000000000000000000\n        /* \"#utility.yul\":11920:11921   */\n      0x00\n        /* \"#utility.yul\":11912:11918   */\n      dup3\n        /* \"#utility.yul\":11908:11922   */\n      add\n        /* \"#utility.yul\":11901:11950   */\n      mstore\n        /* \"#utility.yul\":11784:11957   */\n      pop\n      jump\t// out\n        /* \"#utility.yul\":11963:12329   */\n    tag_133:\n        /* \"#utility.yul\":12105:12108   */\n      0x00\n        /* \"#utility.yul\":12126:12193   */\n      tag_272\n        /* \"#utility.yul\":12190:12192   */\n      0x17\n        /* \"#utility.yul\":12185:12188   */\n      dup4\n        /* \"#utility.yul\":12126:12193   */\n      tag_109\n      jump\t// in\n    tag_272:\n        /* \"#utility.yul\":12119:12193   */\n      swap2\n      pop\n        /* \"#utility.yul\":12202:12295   */\n      tag_273\n        /* \"#utility.yul\":12291:12294   */\n      dup3\n        /* \"#utility.yul\":12202:12295   */\n      tag_132\n      jump\t// in\n    tag_273:\n        /* \"#utility.yul\":12320:12322   */\n      0x20\n        /* \"#utility.yul\":12315:12318   */\n      dup3\n        /* \"#utility.yul\":12311:12323   */\n      add\n        /* \"#utility.yul\":12304:12323   */\n      swap1\n      pop\n        /* \"#utility.yul\":11963:12329   */\n      swap2\n      swap1\n      pop\n      jump\t// out\n        /* \"#utility.yul\":12335:12754   */\n    tag_55:\n        /* \"#utility.yul\":12501:12505   */\n      0x00\n        /* \"#utility.yul\":12539:12541   */\n      0x20\n        /* \"#utility.yul\":12528:12537   */\n      dup3\n        /* \"#utility.yul\":12524:12542   */\n      add\n        /* \"#utility.yul\":12516:12542   */\n      swap1\n      pop\n        /* \"#utility.yul\":12588:12597   */\n      dup2\n        /* \"#utility.yul\":12582:12586   */\n      dup2\n        /* \"#utility.yul\":12578:12598   */\n      sub\n        /* \"#utility.yul\":12574:12575   */\n      0x00\n        /* \"#utility.yul\":12563:12572   */\n      dup4\n        /* \"#utility.yul\":12559:12576   */\n      add\n        /* \"#utility.yul\":12552:12599   */\n      mstore\n        /* \"#utility.yul\":12616:12747   */\n      tag_275\n        /* \"#utility.yul\":12742:12746   */\n      dup2\n        /* \"#utility.yul\":12616:12747   */\n      tag_133\n      jump\t// in\n    tag_275:\n        /* \"#utility.yul\":12608:12747   */\n      swap1\n      pop\n        /* \"#utility.yul\":12335:12754   */\n      swap2\n      swap1\n      pop\n      jump\t// out\n        /* \"#utility.yul\":12760:12929   */\n    tag_134:\n        /* \"#utility.yul\":12900:12921   */\n      0x5573657220616c72656164792065786973742100000000000000000000000000\n        /* \"#utility.yul\":12896:12897   */\n      0x00\n        /* \"#utility.yul\":12888:12894   */\n      dup3\n        /* \"#utility.yul\":12884:12898   */\n      add\n        /* \"#utility.yul\":12877:12922   */\n      mstore\n        /* \"#utility.yul\":12760:12929   */\n      pop\n      jump\t// out\n        /* \"#utility.yul\":12935:13301   */\n    tag_135:\n        /* \"#utility.yul\":13077:13080   */\n      0x00\n        /* \"#utility.yul\":13098:13165   */\n      tag_278\n        /* \"#utility.yul\":13162:13164   */\n      0x13\n        /* \"#utility.yul\":13157:13160   */\n      dup4\n        /* \"#utility.yul\":13098:13165   */\n      tag_109\n      jump\t// in\n    tag_278:\n        /* \"#utility.yul\":13091:13165   */\n      swap2\n      pop\n        /* \"#utility.yul\":13174:13267   */\n      tag_279\n        /* \"#utility.yul\":13263:13266   */\n      dup3\n        /* \"#utility.yul\":13174:13267   */\n      tag_134\n      jump\t// in\n    tag_279:\n        /* \"#utility.yul\":13292:13294   */\n      0x20\n        /* \"#utility.yul\":13287:13290   */\n      dup3\n        /* \"#utility.yul\":13283:13295   */\n      add\n        /* \"#utility.yul\":13276:13295   */\n      swap1\n      pop\n        /* \"#utility.yul\":12935:13301   */\n      swap2\n      swap1\n      pop\n      jump\t// out\n        /* \"#utility.yul\":13307:13726   */\n    tag_76:\n        /* \"#utility.yul\":13473:13477   */\n      0x00\n        /* \"#utility.yul\":13511:13513   */\n      0x20\n        /* \"#utility.yul\":13500:13509   */\n      dup3\n        /* \"#utility.yul\":13496:13514   */\n      add\n        /* \"#utility.yul\":13488:13514   */\n      swap1\n      pop\n        /* \"#utility.yul\":13560:13569   */\n      dup2\n        /* \"#utility.yul\":13554:13558   */\n      dup2\n        /* \"#utility.yul\":13550:13570   */\n      sub\n        /* \"#utility.yul\":13546:13547   */\n      0x00\n        /* \"#utility.yul\":13535:13544   */\n      dup4\n        /* \"#utility.yul\":13531:13548   */\n      add\n        /* \"#utility.yul\":13524:13571   */\n      mstore\n        /* \"#utility.yul\":13588:13719   */\n      tag_281\n        /* \"#utility.yul\":13714:13718   */\n      dup2\n        /* \"#utility.yul\":13588:13719   */\n      tag_135\n      jump\t// in\n    tag_281:\n        /* \"#utility.yul\":13580:13719   */\n      swap1\n      pop\n        /* \"#utility.yul\":13307:13726   */\n      swap2\n      swap1\n      pop\n      jump\t// out\n        /* \"#utility.yul\":13732:13873   */\n    tag_136:\n        /* \"#utility.yul\":13781:13785   */\n      0x00\n        /* \"#utility.yul\":13804:13807   */\n      dup2\n        /* \"#utility.yul\":13796:13807   */\n      swap1\n      pop\n        /* \"#utility.yul\":13827:13830   */\n      dup2\n        /* \"#utility.yul\":13824:13825   */\n      0x00\n        /* \"#utility.yul\":13817:13831   */\n      mstore\n        /* \"#utility.yul\":13861:13865   */\n      0x20\n        /* \"#utility.yul\":13858:13859   */\n      0x00\n        /* \"#utility.yul\":13848:13866   */\n      keccak256\n        /* \"#utility.yul\":13840:13866   */\n      swap1\n      pop\n        /* \"#utility.yul\":13732:13873   */\n      swap2\n      swap1\n      pop\n      jump\t// out\n        /* \"#utility.yul\":13879:13972   */\n    tag_137:\n        /* \"#utility.yul\":13916:13922   */\n      0x00\n        /* \"#utility.yul\":13963:13965   */\n      0x20\n        /* \"#utility.yul\":13958:13960   */\n      0x1f\n        /* \"#utility.yul\":13951:13956   */\n      dup4\n        /* \"#utility.yul\":13947:13961   */\n      add\n        /* \"#utility.yul\":13943:13966   */\n      div\n        /* \"#utility.yul\":13933:13966   */\n      swap1\n      pop\n        /* \"#utility.yul\":13879:13972   */\n      swap2\n      swap1\n      pop\n      jump\t// out\n        /* \"#utility.yul\":13978:14085   */\n    tag_138:\n        /* \"#utility.yul\":14022:14030   */\n      0x00\n        /* \"#utility.yul\":14072:14077   */\n      dup3\n        /* \"#utility.yul\":14066:14070   */\n      dup3\n        /* \"#utility.yul\":14062:14078   */\n      shl\n        /* \"#utility.yul\":14041:14078   */\n      swap1\n      pop\n        /* \"#utility.yul\":13978:14085   */\n      swap3\n      swap2\n      pop\n      pop\n      jump\t// out\n        /* \"#utility.yul\":14091:14484   */\n    tag_139:\n        /* \"#utility.yul\":14160:14166   */\n      0x00\n        /* \"#utility.yul\":14210:14211   */\n      0x08\n        /* \"#utility.yul\":14198:14208   */\n      dup4\n        /* \"#utility.yul\":14194:14212   */\n      mul\n        /* \"#utility.yul\":14233:14330   */\n      tag_286\n        /* \"#utility.yul\":14263:14329   */\n      0xffffffffffffffffffffffffffffffffffffffffffffffffffffffffffffffff\n        /* \"#utility.yul\":14252:14261   */\n      dup3\n        /* \"#utility.yul\":14233:14330   */\n      tag_138\n      jump\t// in\n    tag_286:\n        /* \"#utility.yul\":14351:14390   */\n      tag_287\n        /* \"#utility.yul\":14381:14389   */\n      dup7\n        /* \"#utility.yul\":14370:14379   */\n      dup4\n        /* \"#utility.yul\":14351:14390   */\n      tag_138\n      jump\t// in\n    tag_287:\n        /* \"#utility.yul\":14339:14390   */\n      swap6\n      pop\n        /* \"#utility.yul\":14423:14427   */\n      dup1\n        /* \"#utility.yul\":14419:14428   */\n      not\n        /* \"#utility.yul\":14412:14417   */\n      dup5\n        /* \"#utility.yul\":14408:14429   */\n      and\n        /* \"#utility.yul\":14399:14429   */\n      swap4\n      pop\n        /* \"#utility.yul\":14472:14476   */\n      dup1\n        /* \"#utility.yul\":14462:14470   */\n      dup7\n        /* \"#utility.yul\":14458:14477   */\n      and\n        /* \"#utility.yul\":14451:14456   */\n      dup5\n        /* \"#utility.yul\":14448:14478   */\n      or\n        /* \"#utility.yul\":14438:14478   */\n      swap3\n      pop\n        /* \"#utility.yul\":14167:14484   */\n      pop\n      pop\n        /* \"#utility.yul\":14091:14484   */\n      swap4\n      swap3\n      pop\n      pop\n      pop\n      jump\t// out\n        /* \"#utility.yul\":14490:14567   */\n    tag_140:\n        /* \"#utility.yul\":14527:14534   */\n      0x00\n        /* \"#utility.yul\":14556:14561   */\n      dup2\n        /* \"#utility.yul\":14545:14561   */\n      swap1\n      pop\n        /* \"#utility.yul\":14490:14567   */\n      swap2\n      swap1\n      pop\n      jump\t// out\n        /* \"#utility.yul\":14573:14633   */\n    tag_141:\n        /* \"#utility.yul\":14601:14604   */\n      0x00\n        /* \"#utility.yul\":14622:14627   */\n      dup2\n        /* \"#utility.yul\":14615:14627   */\n      swap1\n      pop\n        /* \"#utility.yul\":14573:14633   */\n      swap2\n      swap1\n      pop\n      jump\t// out\n        /* \"#utility.yul\":14639:14781   */\n    tag_142:\n        /* \"#utility.yul\":14689:14698   */\n      0x00\n        /* \"#utility.yul\":14722:14775   */\n      tag_291\n        /* \"#utility.yul\":14740:14774   */\n      tag_292\n        /* \"#utility.yul\":14749:14773   */\n      tag_293\n        /* \"#utility.yul\":14767:14772   */\n      dup5\n        /* \"#utility.yul\":14749:14773   */\n      tag_140\n      jump\t// in\n    tag_293:\n        /* \"#utility.yul\":14740:14774   */\n      tag_141\n      jump\t// in\n    tag_292:\n        /* \"#utility.yul\":14722:14775   */\n      tag_140\n      jump\t// in\n    tag_291:\n        /* \"#utility.yul\":14709:14775   */\n      swap1\n      pop\n        /* \"#utility.yul\":14639:14781   */\n      swap2\n      swap1\n      pop\n      jump\t// out\n        /* \"#utility.yul\":14787:14862   */\n    tag_143:\n        /* \"#utility.yul\":14830:14833   */\n      0x00\n        /* \"#utility.yul\":14851:14856   */\n      dup2\n        /* \"#utility.yul\":14844:14856   */\n      swap1\n      pop\n        /* \"#utility.yul\":14787:14862   */\n      swap2\n      swap1\n      pop\n      jump\t// out\n        /* \"#utility.yul\":14868:15137   */\n    tag_144:\n        /* \"#utility.yul\":14978:15017   */\n      tag_296\n        /* \"#utility.yul\":15009:15016   */\n      dup4\n        /* \"#utility.yul\":14978:15017   */\n      tag_142\n      jump\t// in\n    tag_296:\n        /* \"#utility.yul\":15039:15130   */\n      tag_297\n        /* \"#utility.yul\":15088:15129   */\n      tag_298\n        /* \"#utility.yul\":15112:15128   */\n      dup3\n        /* \"#utility.yul\":15088:15129   */\n      tag_143\n      jump\t// in\n    tag_298:\n        /* \"#utility.yul\":15080:15086   */\n      dup5\n        /* \"#utility.yul\":15073:15077   */\n      dup5\n        /* \"#utility.yul\":15067:15078   */\n      sload\n        /* \"#utility.yul\":15039:15130   */\n      tag_139\n      jump\t// in\n    tag_297:\n        /* \"#utility.yul\":15033:15037   */\n      dup3\n        /* \"#utility.yul\":15026:15131   */\n      sstore\n        /* \"#utility.yul\":14944:15137   */\n      pop\n        /* \"#utility.yul\":14868:15137   */\n      pop\n      pop\n      pop\n      jump\t// out\n        /* \"#utility.yul\":15143:15216   */\n    tag_145:\n        /* \"#utility.yul\":15188:15191   */\n      0x00\n        /* \"#utility.yul\":15143:15216   */\n      swap1\n      jump\t// out\n        /* \"#utility.yul\":15222:15411   */\n    tag_146:\n        /* \"#utility.yul\":15299:15331   */\n      tag_301\n      tag_145\n      jump\t// in\n    tag_301:\n        /* \"#utility.yul\":15340:15405   */\n      tag_302\n        /* \"#utility.yul\":15398:15404   */\n      dup2\n        /* \"#utility.yul\":15390:15396   */\n      dup5\n        /* \"#utility.yul\":15384:15388   */\n      dup5\n        /* \"#utility.yul\":15340:15405   */\n      tag_144\n      jump\t// in\n    tag_302:\n        /* \"#utility.yul\":15275:15411   */\n      pop\n        /* \"#utility.yul\":15222:15411   */\n      pop\n      pop\n      jump\t// out\n        /* \"#utility.yul\":15417:15603   */\n    tag_147:\n        /* \"#utility.yul\":15477:15597   */\n    tag_304:\n        /* \"#utility.yul\":15494:15497   */\n      dup2\n        /* \"#utility.yul\":15487:15492   */\n      dup2\n        /* \"#utility.yul\":15484:15498   */\n      lt\n        /* \"#utility.yul\":15477:15597   */\n      iszero\n      tag_306\n      jumpi\n        /* \"#utility.yul\":15548:15587   */\n      tag_307\n        /* \"#utility.yul\":15585:15586   */\n      0x00\n        /* \"#utility.yul\":15578:15583   */\n      dup3\n        /* \"#utility.yul\":15548:15587   */\n      tag_146\n      jump\t// in\n    tag_307:\n        /* \"#utility.yul\":15521:15522   */\n      0x01\n        /* \"#utility.yul\":15514:15519   */\n      dup2\n        /* \"#utility.yul\":15510:15523   */\n      add\n        /* \"#utility.yul\":15501:15523   */\n      swap1\n      pop\n        /* \"#utility.yul\":15477:15597   */\n      jump(tag_304)\n    tag_306:\n        /* \"#utility.yul\":15417:15603   */\n      pop\n      pop\n      jump\t// out\n        /* \"#utility.yul\":15609:16152   */\n    tag_148:\n        /* \"#utility.yul\":15710:15712   */\n      0x1f\n        /* \"#utility.yul\":15705:15708   */\n      dup3\n        /* \"#utility.yul\":15702:15713   */\n      gt\n        /* \"#utility.yul\":15699:16145   */\n      iszero\n      tag_309\n      jumpi\n        /* \"#utility.yul\":15744:15782   */\n      tag_310\n        /* \"#utility.yul\":15776:15781   */\n      dup2\n        /* \"#utility.yul\":15744:15782   */\n      tag_136\n      jump\t// in\n    tag_310:\n        /* \"#utility.yul\":15828:15857   */\n      tag_311\n        /* \"#utility.yul\":15846:15856   */\n      dup5\n        /* \"#utility.yul\":15828:15857   */\n      tag_137\n      jump\t// in\n    tag_311:\n        /* \"#utility.yul\":15818:15826   */\n      dup2\n        /* \"#utility.yul\":15814:15858   */\n      add\n        /* \"#utility.yul\":16011:16013   */\n      0x20\n        /* \"#utility.yul\":15999:16009   */\n      dup6\n        /* \"#utility.yul\":15996:16014   */\n      lt\n        /* \"#utility.yul\":15993:16042   */\n      iszero\n      tag_312\n      jumpi\n        /* \"#utility.yul\":16032:16040   */\n      dup2\n        /* \"#utility.yul\":16017:16040   */\n      swap1\n      pop\n        /* \"#utility.yul\":15993:16042   */\n    tag_312:\n        /* \"#utility.yul\":16055:16135   */\n      tag_313\n        /* \"#utility.yul\":16111:16133   */\n      tag_314\n        /* \"#utility.yul\":16129:16132   */\n      dup6\n        /* \"#utility.yul\":16111:16133   */\n      tag_137\n      jump\t// in\n    tag_314:\n        /* \"#utility.yul\":16101:16109   */\n      dup4\n        /* \"#utility.yul\":16097:16134   */\n      add\n        /* \"#utility.yul\":16084:16095   */\n      dup3\n        /* \"#utility.yul\":16055:16135   */\n      tag_147\n      jump\t// in\n    tag_313:\n        /* \"#utility.yul\":15714:16145   */\n      pop\n      pop\n        /* \"#utility.yul\":15699:16145   */\n    tag_309:\n        /* \"#utility.yul\":15609:16152   */\n      pop\n      pop\n      pop\n      jump\t// out\n        /* \"#utility.yul\":16158:16275   */\n    tag_149:\n        /* \"#utility.yul\":16212:16220   */\n      0x00\n        /* \"#utility.yul\":16262:16267   */\n      dup3\n        /* \"#utility.yul\":16256:16260   */\n      dup3\n        /* \"#utility.yul\":16252:16268   */\n      shr\n        /* \"#utility.yul\":16231:16268   */\n      swap1\n      pop\n        /* \"#utility.yul\":16158:16275   */\n      swap3\n      swap2\n      pop\n      pop\n      jump\t// out\n        /* \"#utility.yul\":16281:16450   */\n    tag_150:\n        /* \"#utility.yul\":16325:16331   */\n      0x00\n        /* \"#utility.yul\":16358:16409   */\n      tag_317\n        /* \"#utility.yul\":16406:16407   */\n      0x00\n        /* \"#utility.yul\":16402:16408   */\n      not\n        /* \"#utility.yul\":16394:16399   */\n      dup5\n        /* \"#utility.yul\":16391:16392   */\n      0x08\n        /* \"#utility.yul\":16387:16400   */\n      mul\n        /* \"#utility.yul\":16358:16409   */\n      tag_149\n      jump\t// in\n    tag_317:\n        /* \"#utility.yul\":16354:16410   */\n      not\n        /* \"#utility.yul\":16439:16443   */\n      dup1\n        /* \"#utility.yul\":16433:16437   */\n      dup4\n        /* \"#utility.yul\":16429:16444   */\n      and\n        /* \"#utility.yul\":16419:16444   */\n      swap2\n      pop\n        /* \"#utility.yul\":16332:16450   */\n      pop\n        /* \"#utility.yul\":16281:16450   */\n      swap3\n      swap2\n      pop\n      pop\n      jump\t// out\n        /* \"#utility.yul\":16455:16750   */\n    tag_151:\n        /* \"#utility.yul\":16531:16535   */\n      0x00\n        /* \"#utility.yul\":16677:16706   */\n      tag_319\n        /* \"#utility.yul\":16702:16705   */\n      dup4\n        /* \"#utility.yul\":16696:16700   */\n      dup4\n        /* \"#utility.yul\":16677:16706   */\n      tag_150\n      jump\t// in\n    tag_319:\n        /* \"#utility.yul\":16669:16706   */\n      swap2\n      pop\n        /* \"#utility.yul\":16739:16742   */\n      dup3\n        /* \"#utility.yul\":16736:16737   */\n      0x02\n        /* \"#utility.yul\":16732:16743   */\n      mul\n        /* \"#utility.yul\":16726:16730   */\n      dup3\n        /* \"#utility.yul\":16723:16744   */\n      or\n        /* \"#utility.yul\":16715:16744   */\n      swap1\n      pop\n        /* \"#utility.yul\":16455:16750   */\n      swap3\n      swap2\n      pop\n      pop\n      jump\t// out\n        /* \"#utility.yul\":16755:18150   */\n    tag_80:\n        /* \"#utility.yul\":16872:16909   */\n      tag_321\n        /* \"#utility.yul\":16905:16908   */\n      dup3\n        /* \"#utility.yul\":16872:16909   */\n      tag_108\n      jump\t// in\n    tag_321:\n        /* \"#utility.yul\":16974:16992   */\n      0xffffffffffffffff\n        /* \"#utility.yul\":16966:16972   */\n      dup2\n        /* \"#utility.yul\":16963:16993   */\n      gt\n        /* \"#utility.yul\":16960:17016   */\n      iszero\n      tag_322\n      jumpi\n        /* \"#utility.yul\":16996:17014   */\n      tag_323\n      tag_115\n      jump\t// in\n    tag_323:\n        /* \"#utility.yul\":16960:17016   */\n    tag_322:\n        /* \"#utility.yul\":17040:17078   */\n      tag_324\n        /* \"#utility.yul\":17072:17076   */\n      dup3\n        /* \"#utility.yul\":17066:17077   */\n      sload\n        /* \"#utility.yul\":17040:17078   */\n      tag_40\n      jump\t// in\n    tag_324:\n        /* \"#utility.yul\":17125:17192   */\n      tag_325\n        /* \"#utility.yul\":17185:17191   */\n      dup3\n        /* \"#utility.yul\":17177:17183   */\n      dup3\n        /* \"#utility.yul\":17171:17175   */\n      dup6\n        /* \"#utility.yul\":17125:17192   */\n      tag_148\n      jump\t// in\n    tag_325:\n        /* \"#utility.yul\":17219:17220   */\n      0x00\n        /* \"#utility.yul\":17243:17247   */\n      0x20\n        /* \"#utility.yul\":17230:17247   */\n      swap1\n      pop\n        /* \"#utility.yul\":17275:17277   */\n      0x1f\n        /* \"#utility.yul\":17267:17273   */\n      dup4\n        /* \"#utility.yul\":17264:17278   */\n      gt\n        /* \"#utility.yul\":17292:17293   */\n      0x01\n        /* \"#utility.yul\":17287:17905   */\n      dup2\n      eq\n      tag_327\n      jumpi\n        /* \"#utility.yul\":17949:17950   */\n      0x00\n        /* \"#utility.yul\":17966:17972   */\n      dup5\n        /* \"#utility.yul\":17963:18040   */\n      iszero\n      tag_328\n      jumpi\n        /* \"#utility.yul\":18015:18024   */\n      dup3\n        /* \"#utility.yul\":18010:18013   */\n      dup8\n        /* \"#utility.yul\":18006:18025   */\n      add\n        /* \"#utility.yul\":18000:18026   */\n      mload\n        /* \"#utility.yul\":17991:18026   */\n      swap1\n      pop\n        /* \"#utility.yul\":17963:18040   */\n    tag_328:\n        /* \"#utility.yul\":18066:18133   */\n      tag_329\n        /* \"#utility.yul\":18126:18132   */\n      dup6\n        /* \"#utility.yul\":18119:18124   */\n      dup3\n        /* \"#utility.yul\":18066:18133   */\n      tag_151\n      jump\t// in\n    tag_329:\n        /* \"#utility.yul\":18060:18064   */\n      dup7\n        /* \"#utility.yul\":18053:18134   */\n      sstore\n        /* \"#utility.yul\":17922:18144   */\n      pop\n        /* \"#utility.yul\":17257:18144   */\n      jump(tag_326)\n        /* \"#utility.yul\":17287:17905   */\n    tag_327:\n        /* \"#utility.yul\":17339:17343   */\n      0x1f\n        /* \"#utility.yul\":17335:17344   */\n      not\n        /* \"#utility.yul\":17327:17333   */\n      dup5\n        /* \"#utility.yul\":17323:17345   */\n      and\n        /* \"#utility.yul\":17373:17410   */\n      tag_330\n        /* \"#utility.yul\":17405:17409   */\n      dup7\n        /* \"#utility.yul\":17373:17410   */\n      tag_136\n      jump\t// in\n    tag_330:\n        /* \"#utility.yul\":17432:17433   */\n      0x00\n        /* \"#utility.yul\":17446:17654   */\n    tag_331:\n        /* \"#utility.yul\":17460:17467   */\n      dup3\n        /* \"#utility.yul\":17457:17458   */\n      dup2\n        /* \"#utility.yul\":17454:17468   */\n      lt\n        /* \"#utility.yul\":17446:17654   */\n      iszero\n      tag_333\n      jumpi\n        /* \"#utility.yul\":17539:17548   */\n      dup5\n        /* \"#utility.yul\":17534:17537   */\n      dup10\n        /* \"#utility.yul\":17530:17549   */\n      add\n        /* \"#utility.yul\":17524:17550   */\n      mload\n        /* \"#utility.yul\":17516:17522   */\n      dup3\n        /* \"#utility.yul\":17509:17551   */\n      sstore\n        /* \"#utility.yul\":17590:17591   */\n      0x01\n        /* \"#utility.yul\":17582:17588   */\n      dup3\n        /* \"#utility.yul\":17578:17592   */\n      add\n        /* \"#utility.yul\":17568:17592   */\n      swap2\n      pop\n        /* \"#utility.yul\":17637:17639   */\n      0x20\n        /* \"#utility.yul\":17626:17635   */\n      dup6\n        /* \"#utility.yul\":17622:17640   */\n      add\n        /* \"#utility.yul\":17609:17640   */\n      swap5\n      pop\n        /* \"#utility.yul\":17483:17487   */\n      0x20\n        /* \"#utility.yul\":17480:17481   */\n      dup2\n        /* \"#utility.yul\":17476:17488   */\n      add\n        /* \"#utility.yul\":17471:17488   */\n      swap1\n      pop\n        /* \"#utility.yul\":17446:17654   */\n      jump(tag_331)\n    tag_333:\n        /* \"#utility.yul\":17682:17688   */\n      dup7\n        /* \"#utility.yul\":17673:17680   */\n      dup4\n        /* \"#utility.yul\":17670:17689   */\n      lt\n        /* \"#utility.yul\":17667:17846   */\n      iszero\n      tag_334\n      jumpi\n        /* \"#utility.yul\":17740:17749   */\n      dup5\n        /* \"#utility.yul\":17735:17738   */\n      dup10\n        /* \"#utility.yul\":17731:17750   */\n      add\n        /* \"#utility.yul\":17725:17751   */\n      mload\n        /* \"#utility.yul\":17783:17831   */\n      tag_335\n        /* \"#utility.yul\":17825:17829   */\n      0x1f\n        /* \"#utility.yul\":17817:17823   */\n      dup10\n        /* \"#utility.yul\":17813:17830   */\n      and\n        /* \"#utility.yul\":17802:17811   */\n      dup3\n        /* \"#utility.yul\":17783:17831   */\n      tag_150\n      jump\t// in\n    tag_335:\n        /* \"#utility.yul\":17775:17781   */\n      dup4\n        /* \"#utility.yul\":17768:17832   */\n      sstore\n        /* \"#utility.yul\":17690:17846   */\n      pop\n        /* \"#utility.yul\":17667:17846   */\n    tag_334:\n        /* \"#utility.yul\":17892:17893   */\n      0x01\n        /* \"#utility.yul\":17888:17889   */\n      0x02\n        /* \"#utility.yul\":17880:17886   */\n      dup9\n        /* \"#utility.yul\":17876:17890   */\n      mul\n        /* \"#utility.yul\":17872:17894   */\n      add\n        /* \"#utility.yul\":17866:17870   */\n      dup9\n        /* \"#utility.yul\":17859:17895   */\n      sstore\n        /* \"#utility.yul\":17294:17905   */\n      pop\n      pop\n      pop\n        /* \"#utility.yul\":17257:18144   */\n    tag_326:\n      pop\n        /* \"#utility.yul\":16847:18150   */\n      pop\n      pop\n      pop\n        /* \"#utility.yul\":16755:18150   */\n      pop\n      pop\n      jump\t// out\n        /* \"#utility.yul\":18156:18329   */\n    tag_152:\n        /* \"#utility.yul\":18296:18321   */\n      0x496e76616c69642077616c6c6574204164647265737321000000000000000000\n        /* \"#utility.yul\":18292:18293   */\n      0x00\n        /* \"#utility.yul\":18284:18290   */\n      dup3\n        /* \"#utility.yul\":18280:18294   */\n      add\n        /* \"#utility.yul\":18273:18322   */\n      mstore\n        /* \"#utility.yul\":18156:18329   */\n      pop\n      jump\t// out\n        /* \"#utility.yul\":18335:18701   */\n    tag_153:\n        /* \"#utility.yul\":18477:18480   */\n      0x00\n        /* \"#utility.yul\":18498:18565   */\n      tag_338\n        /* \"#utility.yul\":18562:18564   */\n      0x17\n        /* \"#utility.yul\":18557:18560   */\n      dup4\n        /* \"#utility.yul\":18498:18565   */\n      tag_109\n      jump\t// in\n    tag_338:\n        /* \"#utility.yul\":18491:18565   */\n      swap2\n      pop\n        /* \"#utility.yul\":18574:18667   */\n      tag_339\n        /* \"#utility.yul\":18663:18666   */\n      dup3\n        /* \"#utility.yul\":18574:18667   */\n      tag_152\n      jump\t// in\n    tag_339:\n        /* \"#utility.yul\":18692:18694   */\n      0x20\n        /* \"#utility.yul\":18687:18690   */\n      dup3\n        /* \"#utility.yul\":18683:18695   */\n      add\n        /* \"#utility.yul\":18676:18695   */\n      swap1\n      pop\n        /* \"#utility.yul\":18335:18701   */\n      swap2\n      swap1\n      pop\n      jump\t// out\n        /* \"#utility.yul\":18707:19126   */\n    tag_100:\n        /* \"#utility.yul\":18873:18877   */\n      0x00\n        /* \"#utility.yul\":18911:18913   */\n      0x20\n        /* \"#utility.yul\":18900:18909   */\n      dup3\n        /* \"#utility.yul\":18896:18914   */\n      add\n        /* \"#utility.yul\":18888:18914   */\n      swap1\n      pop\n        /* \"#utility.yul\":18960:18969   */\n      dup2\n        /* \"#utility.yul\":18954:18958   */\n      dup2\n        /* \"#utility.yul\":18950:18970   */\n      sub\n        /* \"#utility.yul\":18946:18947   */\n      0x00\n        /* \"#utility.yul\":18935:18944   */\n      dup4\n        /* \"#utility.yul\":18931:18948   */\n      add\n        /* \"#utility.yul\":18924:18971   */\n      mstore\n        /* \"#utility.yul\":18988:19119   */\n      tag_341\n        /* \"#utility.yul\":19114:19118   */\n      dup2\n        /* \"#utility.yul\":18988:19119   */\n      tag_153\n      jump\t// in\n    tag_341:\n        /* \"#utility.yul\":18980:19119   */\n      swap1\n      pop\n        /* \"#utility.yul\":18707:19126   */\n      swap2\n      swap1\n      pop\n      jump\t// out\n\n    auxdata: 0xa2646970667358221220aa258f1b8751d65e5f6c236e44256b6e145999285780aa148385752b280f84e764736f6c63430008180033\n}\n",
				"bytecode": {
					"linkReferences": {},
					"object": "608060405234801561000f575f80fd5b506112b58061001d5f395ff3fe608060405234801561000f575f80fd5b5060043610610060575f3560e01c8063024109ad146100645780631b81e2d214610094578063689e1c03146100b05780637f281635146100e257806388557b0714610112578063ef9b432a1461012e575b5f80fd5b61007e60048036038101906100799190610976565b61015e565b60405161008b9190610a2b565b60405180910390f35b6100ae60048036038101906100a99190610b77565b6102b6565b005b6100ca60048036038101906100c59190610b77565b610326565b6040516100d993929190610bcd565b60405180910390f35b6100fc60048036038101906100f79190610976565b61048e565b6040516101099190610a2b565b60405180910390f35b61012c60048036038101906101279190610c10565b610529565b005b61014860048036038101906101439190610c98565b6106a9565b6040516101559190610d9d565b60405180910390f35b60605f60015f8473ffffffffffffffffffffffffffffffffffffffff1673ffffffffffffffffffffffffffffffffffffffff1681526020019081526020015f2080546101a990610dea565b9050116101eb576040517f08c379a00000000000000000000000000000000000000000000000000000000081526004016101e290610e64565b60405180910390fd5b60015f8373ffffffffffffffffffffffffffffffffffffffff1673ffffffffffffffffffffffffffffffffffffffff1681526020019081526020015f20805461023390610dea565b80601f016020809104026020016040519081016040528092919081815260200182805461025f90610dea565b80156102aa5780601f10610281576101008083540402835291602001916102aa565b820191905f5260205f20905b81548152906001019060200180831161028d57829003601f168201915b50505050509050919050565b5f80826040516102c69190610ebc565b90815260200160405180910390205f0180546102e190610dea565b905011610323576040517f08c379a000000000000000000000000000000000000000000000000000000000815260040161031a90610f1c565b60405180910390fd5b50565b5f818051602081018201805184825260208301602085012081835280955050505050505f91509050805f01805461035c90610dea565b80601f016020809104026020016040519081016040528092919081815260200182805461038890610dea565b80156103d35780601f106103aa576101008083540402835291602001916103d3565b820191905f5260205f20905b8154815290600101906020018083116103b657829003601f168201915b5050505050908060010180546103e890610dea565b80601f016020809104026020016040519081016040528092919081815260200182805461041490610dea565b801561045f5780601f106104365761010080835404028352916020019161045f565b820191905f5260205f20905b81548152906001019060200180831161044257829003601f168201915b505050505090806002015f9054906101000a900473ffffffffffffffffffffffffffffffffffffffff16905083565b6001602052805f5260405f205f9150905080546104aa90610dea565b80601f01602080910402602001604051908101604052809291908181526020018280546104d690610dea565b80156105215780601f106104f857610100808354040283529160200191610521565b820191905f5260205f20905b81548152906001019060200180831161050457829003601f168201915b505050505081565b825f808260405161053a9190610ebc565b90815260200160405180910390205f01805461055590610dea565b905014610597576040517f08c379a000000000000000000000000000000000000000000000000000000000815260040161058e90610f84565b60405180910390fd5b60405180606001604052808581526020018481526020018373ffffffffffffffffffffffffffffffffffffffff168152505f856040516105d79190610ebc565b90815260200160405180910390205f820151815f0190816105f89190611148565b50602082015181600101908161060e9190611148565b506040820151816002015f6101000a81548173ffffffffffffffffffffffffffffffffffffffff021916908373ffffffffffffffffffffffffffffffffffffffff1602179055509050508360015f8473ffffffffffffffffffffffffffffffffffffffff1673ffffffffffffffffffffffffffffffffffffffff1681526020019081526020015f2090816106a29190611148565b5050505050565b6106b16108d5565b6106ba836102b6565b5f80846040516106ca9190610ebc565b90815260200160405180910390206040518060600160405290815f820180546106f290610dea565b80601f016020809104026020016040519081016040528092919081815260200182805461071e90610dea565b80156107695780601f1061074057610100808354040283529160200191610769565b820191905f5260205f20905b81548152906001019060200180831161074c57829003601f168201915b5050505050815260200160018201805461078290610dea565b80601f01602080910402602001604051908101604052809291908181526020018280546107ae90610dea565b80156107f95780601f106107d0576101008083540402835291602001916107f9565b820191905f5260205f20905b8154815290600101906020018083116107dc57829003601f168201915b50505050508152602001600282015f9054906101000a900473ffffffffffffffffffffffffffffffffffffffff1673ffffffffffffffffffffffffffffffffffffffff1673ffffffffffffffffffffffffffffffffffffffff168152505090508273ffffffffffffffffffffffffffffffffffffffff16816040015173ffffffffffffffffffffffffffffffffffffffff16146108cb576040517f08c379a00000000000000000000000000000000000000000000000000000000081526004016108c290611261565b60405180910390fd5b8091505092915050565b604051806060016040528060608152602001606081526020015f73ffffffffffffffffffffffffffffffffffffffff1681525090565b5f604051905090565b5f80fd5b5f80fd5b5f73ffffffffffffffffffffffffffffffffffffffff82169050919050565b5f6109458261091c565b9050919050565b6109558161093b565b811461095f575f80fd5b50565b5f813590506109708161094c565b92915050565b5f6020828403121561098b5761098a610914565b5b5f61099884828501610962565b91505092915050565b5f81519050919050565b5f82825260208201905092915050565b5f5b838110156109d85780820151818401526020810190506109bd565b5f8484015250505050565b5f601f19601f8301169050919050565b5f6109fd826109a1565b610a0781856109ab565b9350610a178185602086016109bb565b610a20816109e3565b840191505092915050565b5f6020820190508181035f830152610a4381846109f3565b905092915050565b5f80fd5b5f80fd5b7f4e487b71000000000000000000000000000000000000000000000000000000005f52604160045260245ffd5b610a89826109e3565b810181811067ffffffffffffffff82111715610aa857610aa7610a53565b5b80604052505050565b5f610aba61090b565b9050610ac68282610a80565b919050565b5f67ffffffffffffffff821115610ae557610ae4610a53565b5b610aee826109e3565b9050602081019050919050565b828183375f83830152505050565b5f610b1b610b1684610acb565b610ab1565b905082815260208101848484011115610b3757610b36610a4f565b5b610b42848285610afb565b509392505050565b5f82601f830112610b5e57610b5d610a4b565b5b8135610b6e848260208601610b09565b91505092915050565b5f60208284031215610b8c57610b8b610914565b5b5f82013567ffffffffffffffff811115610ba957610ba8610918565b5b610bb584828501610b4a565b91505092915050565b610bc78161093b565b82525050565b5f6060820190508181035f830152610be581866109f3565b90508181036020830152610bf981856109f3565b9050610c086040830184610bbe565b949350505050565b5f805f60608486031215610c2757610c26610914565b5b5f84013567ffffffffffffffff811115610c4457610c43610918565b5b610c5086828701610b4a565b935050602084013567ffffffffffffffff811115610c7157610c70610918565b5b610c7d86828701610b4a565b9250506040610c8e86828701610962565b9150509250925092565b5f8060408385031215610cae57610cad610914565b5b5f83013567ffffffffffffffff811115610ccb57610cca610918565b5b610cd785828601610b4a565b9250506020610ce885828601610962565b9150509250929050565b5f82825260208201905092915050565b5f610d0c826109a1565b610d168185610cf2565b9350610d268185602086016109bb565b610d2f816109e3565b840191505092915050565b610d438161093b565b82525050565b5f606083015f8301518482035f860152610d638282610d02565b91505060208301518482036020860152610d7d8282610d02565b9150506040830151610d926040860182610d3a565b508091505092915050565b5f6020820190508181035f830152610db58184610d49565b905092915050565b7f4e487b71000000000000000000000000000000000000000000000000000000005f52602260045260245ffd5b5f6002820490506001821680610e0157607f821691505b602082108103610e1457610e13610dbd565b5b50919050565b7f556e61626c6520746f2066696e6420757365726e616d652100000000000000005f82015250565b5f610e4e6018836109ab565b9150610e5982610e1a565b602082019050919050565b5f6020820190508181035f830152610e7b81610e42565b9050919050565b5f81905092915050565b5f610e96826109a1565b610ea08185610e82565b9350610eb08185602086016109bb565b80840191505092915050565b5f610ec78284610e8c565b915081905092915050565b7f55736572206973206e6f742072656769737465726564210000000000000000005f82015250565b5f610f066017836109ab565b9150610f1182610ed2565b602082019050919050565b5f6020820190508181035f830152610f3381610efa565b9050919050565b7f5573657220616c726561647920657869737421000000000000000000000000005f82015250565b5f610f6e6013836109ab565b9150610f7982610f3a565b602082019050919050565b5f6020820190508181035f830152610f9b81610f62565b9050919050565b5f819050815f5260205f209050919050565b5f6020601f8301049050919050565b5f82821b905092915050565b5f60088302610ffe7fffffffffffffffffffffffffffffffffffffffffffffffffffffffffffffffff82610fc3565b6110088683610fc3565b95508019841693508086168417925050509392505050565b5f819050919050565b5f819050919050565b5f61104c61104761104284611020565b611029565b611020565b9050919050565b5f819050919050565b61106583611032565b61107961107182611053565b848454610fcf565b825550505050565b5f90565b61108d611081565b61109881848461105c565b505050565b5b818110156110bb576110b05f82611085565b60018101905061109e565b5050565b601f821115611100576110d181610fa2565b6110da84610fb4565b810160208510156110e9578190505b6110fd6110f585610fb4565b83018261109d565b50505b505050565b5f82821c905092915050565b5f6111205f1984600802611105565b1980831691505092915050565b5f6111388383611111565b9150826002028217905092915050565b611151826109a1565b67ffffffffffffffff81111561116a57611169610a53565b5b6111748254610dea565b61117f8282856110bf565b5f60209050601f8311600181146111b0575f841561119e578287015190505b6111a8858261112d565b86555061120f565b601f1984166111be86610fa2565b5f5b828110156111e5578489015182556001820191506020850194506020810190506111c0565b8683101561120257848901516111fe601f891682611111565b8355505b6001600288020188555050505b505050505050565b7f496e76616c69642077616c6c65742041646472657373210000000000000000005f82015250565b5f61124b6017836109ab565b915061125682611217565b602082019050919050565b5f6020820190508181035f8301526112788161123f565b905091905056fea2646970667358221220aa258f1b8751d65e5f6c236e44256b6e145999285780aa148385752b280f84e764736f6c63430008180033",
					"opcodes": "PUSH1 0x80 PUSH1 0x40 MSTORE CALLVALUE DUP1 ISZERO PUSH2 0xF JUMPI PUSH0 DUP1 REVERT JUMPDEST POP PUSH2 0x12B5 DUP1 PUSH2 0x1D PUSH0 CODECOPY PUSH0 RETURN INVALID PUSH1 0x80 PUSH1 0x40 MSTORE CALLVALUE DUP1 ISZERO PUSH2 0xF JUMPI PUSH0 DUP1 REVERT JUMPDEST POP PUSH1 0x4 CALLDATASIZE LT PUSH2 0x60 JUMPI PUSH0 CALLDATALOAD PUSH1 0xE0 SHR DUP1 PUSH4 0x24109AD EQ PUSH2 0x64 JUMPI DUP1 PUSH4 0x1B81E2D2 EQ PUSH2 0x94 JUMPI DUP1 PUSH4 0x689E1C03 EQ PUSH2 0xB0 JUMPI DUP1 PUSH4 0x7F281635 EQ PUSH2 0xE2 JUMPI DUP1 PUSH4 0x88557B07 EQ PUSH2 0x112 JUMPI DUP1 PUSH4 0xEF9B432A EQ PUSH2 0x12E JUMPI JUMPDEST PUSH0 DUP1 REVERT JUMPDEST PUSH2 0x7E PUSH1 0x4 DUP1 CALLDATASIZE SUB DUP2 ADD SWAP1 PUSH2 0x79 SWAP2 SWAP1 PUSH2 0x976 JUMP JUMPDEST PUSH2 0x15E JUMP JUMPDEST PUSH1 0x40 MLOAD PUSH2 0x8B SWAP2 SWAP1 PUSH2 0xA2B JUMP JUMPDEST PUSH1 0x40 MLOAD DUP1 SWAP2 SUB SWAP1 RETURN JUMPDEST PUSH2 0xAE PUSH1 0x4 DUP1 CALLDATASIZE SUB DUP2 ADD SWAP1 PUSH2 0xA9 SWAP2 SWAP1 PUSH2 0xB77 JUMP JUMPDEST PUSH2 0x2B6 JUMP JUMPDEST STOP JUMPDEST PUSH2 0xCA PUSH1 0x4 DUP1 CALLDATASIZE SUB DUP2 ADD SWAP1 PUSH2 0xC5 SWAP2 SWAP1 PUSH2 0xB77 JUMP JUMPDEST PUSH2 0x326 JUMP JUMPDEST PUSH1 0x40 MLOAD PUSH2 0xD9 SWAP4 SWAP3 SWAP2 SWAP1 PUSH2 0xBCD JUMP JUMPDEST PUSH1 0x40 MLOAD DUP1 SWAP2 SUB SWAP1 RETURN JUMPDEST PUSH2 0xFC PUSH1 0x4 DUP1 CALLDATASIZE SUB DUP2 ADD SWAP1 PUSH2 0xF7 SWAP2 SWAP1 PUSH2 0x976 JUMP JUMPDEST PUSH2 0x48E JUMP JUMPDEST PUSH1 0x40 MLOAD PUSH2 0x109 SWAP2 SWAP1 PUSH2 0xA2B JUMP JUMPDEST PUSH1 0x40 MLOAD DUP1 SWAP2 SUB SWAP1 RETURN JUMPDEST PUSH2 0x12C PUSH1 0x4 DUP1 CALLDATASIZE SUB DUP2 ADD SWAP1 PUSH2 0x127 SWAP2 SWAP1 PUSH2 0xC10 JUMP JUMPDEST PUSH2 0x529 JUMP JUMPDEST STOP JUMPDEST PUSH2 0x148 PUSH1 0x4 DUP1 CALLDATASIZE SUB DUP2 ADD SWAP1 PUSH2 0x143 SWAP2 SWAP1 PUSH2 0xC98 JUMP JUMPDEST PUSH2 0x6A9 JUMP JUMPDEST PUSH1 0x40 MLOAD PUSH2 0x155 SWAP2 SWAP1 PUSH2 0xD9D JUMP JUMPDEST PUSH1 0x40 MLOAD DUP1 SWAP2 SUB SWAP1 RETURN JUMPDEST PUSH1 0x60 PUSH0 PUSH1 0x1 PUSH0 DUP5 PUSH20 0xFFFFFFFFFFFFFFFFFFFFFFFFFFFFFFFFFFFFFFFF AND PUSH20 0xFFFFFFFFFFFFFFFFFFFFFFFFFFFFFFFFFFFFFFFF AND DUP2 MSTORE PUSH1 0x20 ADD SWAP1 DUP2 MSTORE PUSH1 0x20 ADD PUSH0 KECCAK256 DUP1 SLOAD PUSH2 0x1A9 SWAP1 PUSH2 0xDEA JUMP JUMPDEST SWAP1 POP GT PUSH2 0x1EB JUMPI PUSH1 0x40 MLOAD PUSH32 0x8C379A000000000000000000000000000000000000000000000000000000000 DUP2 MSTORE PUSH1 0x4 ADD PUSH2 0x1E2 SWAP1 PUSH2 0xE64 JUMP JUMPDEST PUSH1 0x40 MLOAD DUP1 SWAP2 SUB SWAP1 REVERT JUMPDEST PUSH1 0x1 PUSH0 DUP4 PUSH20 0xFFFFFFFFFFFFFFFFFFFFFFFFFFFFFFFFFFFFFFFF AND PUSH20 0xFFFFFFFFFFFFFFFFFFFFFFFFFFFFFFFFFFFFFFFF AND DUP2 MSTORE PUSH1 0x20 ADD SWAP1 DUP2 MSTORE PUSH1 0x20 ADD PUSH0 KECCAK256 DUP1 SLOAD PUSH2 0x233 SWAP1 PUSH2 0xDEA JUMP JUMPDEST DUP1 PUSH1 0x1F ADD PUSH1 0x20 DUP1 SWAP2 DIV MUL PUSH1 0x20 ADD PUSH1 0x40 MLOAD SWAP1 DUP2 ADD PUSH1 0x40 MSTORE DUP1 SWAP3 SWAP2 SWAP1 DUP2 DUP2 MSTORE PUSH1 0x20 ADD DUP3 DUP1 SLOAD PUSH2 0x25F SWAP1 PUSH2 0xDEA JUMP JUMPDEST DUP1 ISZERO PUSH2 0x2AA JUMPI DUP1 PUSH1 0x1F LT PUSH2 0x281 JUMPI PUSH2 0x100 DUP1 DUP4 SLOAD DIV MUL DUP4 MSTORE SWAP2 PUSH1 0x20 ADD SWAP2 PUSH2 0x2AA JUMP JUMPDEST DUP3 ADD SWAP2 SWAP1 PUSH0 MSTORE PUSH1 0x20 PUSH0 KECCAK256 SWAP1 JUMPDEST DUP2 SLOAD DUP2 MSTORE SWAP1 PUSH1 0x1 ADD SWAP1 PUSH1 0x20 ADD DUP1 DUP4 GT PUSH2 0x28D JUMPI DUP3 SWAP1 SUB PUSH1 0x1F AND DUP3 ADD SWAP2 JUMPDEST POP POP POP POP POP SWAP1 POP SWAP2 SWAP1 POP JUMP JUMPDEST PUSH0 DUP1 DUP3 PUSH1 0x40 MLOAD PUSH2 0x2C6 SWAP2 SWAP1 PUSH2 0xEBC JUMP JUMPDEST SWAP1 DUP2 MSTORE PUSH1 0x20 ADD PUSH1 0x40 MLOAD DUP1 SWAP2 SUB SWAP1 KECCAK256 PUSH0 ADD DUP1 SLOAD PUSH2 0x2E1 SWAP1 PUSH2 0xDEA JUMP JUMPDEST SWAP1 POP GT PUSH2 0x323 JUMPI PUSH1 0x40 MLOAD PUSH32 0x8C379A000000000000000000000000000000000000000000000000000000000 DUP2 MSTORE PUSH1 0x4 ADD PUSH2 0x31A SWAP1 PUSH2 0xF1C JUMP JUMPDEST PUSH1 0x40 MLOAD DUP1 SWAP2 SUB SWAP1 REVERT JUMPDEST POP JUMP JUMPDEST PUSH0 DUP2 DUP1 MLOAD PUSH1 0x20 DUP2 ADD DUP3 ADD DUP1 MLOAD DUP5 DUP3 MSTORE PUSH1 0x20 DUP4 ADD PUSH1 0x20 DUP6 ADD KECCAK256 DUP2 DUP4 MSTORE DUP1 SWAP6 POP POP POP POP POP POP PUSH0 SWAP2 POP SWAP1 POP DUP1 PUSH0 ADD DUP1 SLOAD PUSH2 0x35C SWAP1 PUSH2 0xDEA JUMP JUMPDEST DUP1 PUSH1 0x1F ADD PUSH1 0x20 DUP1 SWAP2 DIV MUL PUSH1 0x20 ADD PUSH1 0x40 MLOAD SWAP1 DUP2 ADD PUSH1 0x40 MSTORE DUP1 SWAP3 SWAP2 SWAP1 DUP2 DUP2 MSTORE PUSH1 0x20 ADD DUP3 DUP1 SLOAD PUSH2 0x388 SWAP1 PUSH2 0xDEA JUMP JUMPDEST DUP1 ISZERO PUSH2 0x3D3 JUMPI DUP1 PUSH1 0x1F LT PUSH2 0x3AA JUMPI PUSH2 0x100 DUP1 DUP4 SLOAD DIV MUL DUP4 MSTORE SWAP2 PUSH1 0x20 ADD SWAP2 PUSH2 0x3D3 JUMP JUMPDEST DUP3 ADD SWAP2 SWAP1 PUSH0 MSTORE PUSH1 0x20 PUSH0 KECCAK256 SWAP1 JUMPDEST DUP2 SLOAD DUP2 MSTORE SWAP1 PUSH1 0x1 ADD SWAP1 PUSH1 0x20 ADD DUP1 DUP4 GT PUSH2 0x3B6 JUMPI DUP3 SWAP1 SUB PUSH1 0x1F AND DUP3 ADD SWAP2 JUMPDEST POP POP POP POP POP SWAP1 DUP1 PUSH1 0x1 ADD DUP1 SLOAD PUSH2 0x3E8 SWAP1 PUSH2 0xDEA JUMP JUMPDEST DUP1 PUSH1 0x1F ADD PUSH1 0x20 DUP1 SWAP2 DIV MUL PUSH1 0x20 ADD PUSH1 0x40 MLOAD SWAP1 DUP2 ADD PUSH1 0x40 MSTORE DUP1 SWAP3 SWAP2 SWAP1 DUP2 DUP2 MSTORE PUSH1 0x20 ADD DUP3 DUP1 SLOAD PUSH2 0x414 SWAP1 PUSH2 0xDEA JUMP JUMPDEST DUP1 ISZERO PUSH2 0x45F JUMPI DUP1 PUSH1 0x1F LT PUSH2 0x436 JUMPI PUSH2 0x100 DUP1 DUP4 SLOAD DIV MUL DUP4 MSTORE SWAP2 PUSH1 0x20 ADD SWAP2 PUSH2 0x45F JUMP JUMPDEST DUP3 ADD SWAP2 SWAP1 PUSH0 MSTORE PUSH1 0x20 PUSH0 KECCAK256 SWAP1 JUMPDEST DUP2 SLOAD DUP2 MSTORE SWAP1 PUSH1 0x1 ADD SWAP1 PUSH1 0x20 ADD DUP1 DUP4 GT PUSH2 0x442 JUMPI DUP3 SWAP1 SUB PUSH1 0x1F AND DUP3 ADD SWAP2 JUMPDEST POP POP POP POP POP SWAP1 DUP1 PUSH1 0x2 ADD PUSH0 SWAP1 SLOAD SWAP1 PUSH2 0x100 EXP SWAP1 DIV PUSH20 0xFFFFFFFFFFFFFFFFFFFFFFFFFFFFFFFFFFFFFFFF AND SWAP1 POP DUP4 JUMP JUMPDEST PUSH1 0x1 PUSH1 0x20 MSTORE DUP1 PUSH0 MSTORE PUSH1 0x40 PUSH0 KECCAK256 PUSH0 SWAP2 POP SWAP1 POP DUP1 SLOAD PUSH2 0x4AA SWAP1 PUSH2 0xDEA JUMP JUMPDEST DUP1 PUSH1 0x1F ADD PUSH1 0x20 DUP1 SWAP2 DIV MUL PUSH1 0x20 ADD PUSH1 0x40 MLOAD SWAP1 DUP2 ADD PUSH1 0x40 MSTORE DUP1 SWAP3 SWAP2 SWAP1 DUP2 DUP2 MSTORE PUSH1 0x20 ADD DUP3 DUP1 SLOAD PUSH2 0x4D6 SWAP1 PUSH2 0xDEA JUMP JUMPDEST DUP1 ISZERO PUSH2 0x521 JUMPI DUP1 PUSH1 0x1F LT PUSH2 0x4F8 JUMPI PUSH2 0x100 DUP1 DUP4 SLOAD DIV MUL DUP4 MSTORE SWAP2 PUSH1 0x20 ADD SWAP2 PUSH2 0x521 JUMP JUMPDEST DUP3 ADD SWAP2 SWAP1 PUSH0 MSTORE PUSH1 0x20 PUSH0 KECCAK256 SWAP1 JUMPDEST DUP2 SLOAD DUP2 MSTORE SWAP1 PUSH1 0x1 ADD SWAP1 PUSH1 0x20 ADD DUP1 DUP4 GT PUSH2 0x504 JUMPI DUP3 SWAP1 SUB PUSH1 0x1F AND DUP3 ADD SWAP2 JUMPDEST POP POP POP POP POP DUP2 JUMP JUMPDEST DUP3 PUSH0 DUP1 DUP3 PUSH1 0x40 MLOAD PUSH2 0x53A SWAP2 SWAP1 PUSH2 0xEBC JUMP JUMPDEST SWAP1 DUP2 MSTORE PUSH1 0x20 ADD PUSH1 0x40 MLOAD DUP1 SWAP2 SUB SWAP1 KECCAK256 PUSH0 ADD DUP1 SLOAD PUSH2 0x555 SWAP1 PUSH2 0xDEA JUMP JUMPDEST SWAP1 POP EQ PUSH2 0x597 JUMPI PUSH1 0x40 MLOAD PUSH32 0x8C379A000000000000000000000000000000000000000000000000000000000 DUP2 MSTORE PUSH1 0x4 ADD PUSH2 0x58E SWAP1 PUSH2 0xF84 JUMP JUMPDEST PUSH1 0x40 MLOAD DUP1 SWAP2 SUB SWAP1 REVERT JUMPDEST PUSH1 0x40 MLOAD DUP1 PUSH1 0x60 ADD PUSH1 0x40 MSTORE DUP1 DUP6 DUP2 MSTORE PUSH1 0x20 ADD DUP5 DUP2 MSTORE PUSH1 0x20 ADD DUP4 PUSH20 0xFFFFFFFFFFFFFFFFFFFFFFFFFFFFFFFFFFFFFFFF AND DUP2 MSTORE POP PUSH0 DUP6 PUSH1 0x40 MLOAD PUSH2 0x5D7 SWAP2 SWAP1 PUSH2 0xEBC JUMP JUMPDEST SWAP1 DUP2 MSTORE PUSH1 0x20 ADD PUSH1 0x40 MLOAD DUP1 SWAP2 SUB SWAP1 KECCAK256 PUSH0 DUP3 ADD MLOAD DUP2 PUSH0 ADD SWAP1 DUP2 PUSH2 0x5F8 SWAP2 SWAP1 PUSH2 0x1148 JUMP JUMPDEST POP PUSH1 0x20 DUP3 ADD MLOAD DUP2 PUSH1 0x1 ADD SWAP1 DUP2 PUSH2 0x60E SWAP2 SWAP1 PUSH2 0x1148 JUMP JUMPDEST POP PUSH1 0x40 DUP3 ADD MLOAD DUP2 PUSH1 0x2 ADD PUSH0 PUSH2 0x100 EXP DUP2 SLOAD DUP2 PUSH20 0xFFFFFFFFFFFFFFFFFFFFFFFFFFFFFFFFFFFFFFFF MUL NOT AND SWAP1 DUP4 PUSH20 0xFFFFFFFFFFFFFFFFFFFFFFFFFFFFFFFFFFFFFFFF AND MUL OR SWAP1 SSTORE POP SWAP1 POP POP DUP4 PUSH1 0x1 PUSH0 DUP5 PUSH20 0xFFFFFFFFFFFFFFFFFFFFFFFFFFFFFFFFFFFFFFFF AND PUSH20 0xFFFFFFFFFFFFFFFFFFFFFFFFFFFFFFFFFFFFFFFF AND DUP2 MSTORE PUSH1 0x20 ADD SWAP1 DUP2 MSTORE PUSH1 0x20 ADD PUSH0 KECCAK256 SWAP1 DUP2 PUSH2 0x6A2 SWAP2 SWAP1 PUSH2 0x1148 JUMP JUMPDEST POP POP POP POP POP JUMP JUMPDEST PUSH2 0x6B1 PUSH2 0x8D5 JUMP JUMPDEST PUSH2 0x6BA DUP4 PUSH2 0x2B6 JUMP JUMPDEST PUSH0 DUP1 DUP5 PUSH1 0x40 MLOAD PUSH2 0x6CA SWAP2 SWAP1 PUSH2 0xEBC JUMP JUMPDEST SWAP1 DUP2 MSTORE PUSH1 0x20 ADD PUSH1 0x40 MLOAD DUP1 SWAP2 SUB SWAP1 KECCAK256 PUSH1 0x40 MLOAD DUP1 PUSH1 0x60 ADD PUSH1 0x40 MSTORE SWAP1 DUP2 PUSH0 DUP3 ADD DUP1 SLOAD PUSH2 0x6F2 SWAP1 PUSH2 0xDEA JUMP JUMPDEST DUP1 PUSH1 0x1F ADD PUSH1 0x20 DUP1 SWAP2 DIV MUL PUSH1 0x20 ADD PUSH1 0x40 MLOAD SWAP1 DUP2 ADD PUSH1 0x40 MSTORE DUP1 SWAP3 SWAP2 SWAP1 DUP2 DUP2 MSTORE PUSH1 0x20 ADD DUP3 DUP1 SLOAD PUSH2 0x71E SWAP1 PUSH2 0xDEA JUMP JUMPDEST DUP1 ISZERO PUSH2 0x769 JUMPI DUP1 PUSH1 0x1F LT PUSH2 0x740 JUMPI PUSH2 0x100 DUP1 DUP4 SLOAD DIV MUL DUP4 MSTORE SWAP2 PUSH1 0x20 ADD SWAP2 PUSH2 0x769 JUMP JUMPDEST DUP3 ADD SWAP2 SWAP1 PUSH0 MSTORE PUSH1 0x20 PUSH0 KECCAK256 SWAP1 JUMPDEST DUP2 SLOAD DUP2 MSTORE SWAP1 PUSH1 0x1 ADD SWAP1 PUSH1 0x20 ADD DUP1 DUP4 GT PUSH2 0x74C JUMPI DUP3 SWAP1 SUB PUSH1 0x1F AND DUP3 ADD SWAP2 JUMPDEST POP POP POP POP POP DUP2 MSTORE PUSH1 0x20 ADD PUSH1 0x1 DUP3 ADD DUP1 SLOAD PUSH2 0x782 SWAP1 PUSH2 0xDEA JUMP JUMPDEST DUP1 PUSH1 0x1F ADD PUSH1 0x20 DUP1 SWAP2 DIV MUL PUSH1 0x20 ADD PUSH1 0x40 MLOAD SWAP1 DUP2 ADD PUSH1 0x40 MSTORE DUP1 SWAP3 SWAP2 SWAP1 DUP2 DUP2 MSTORE PUSH1 0x20 ADD DUP3 DUP1 SLOAD PUSH2 0x7AE SWAP1 PUSH2 0xDEA JUMP JUMPDEST DUP1 ISZERO PUSH2 0x7F9 JUMPI DUP1 PUSH1 0x1F LT PUSH2 0x7D0 JUMPI PUSH2 0x100 DUP1 DUP4 SLOAD DIV MUL DUP4 MSTORE SWAP2 PUSH1 0x20 ADD SWAP2 PUSH2 0x7F9 JUMP JUMPDEST DUP3 ADD SWAP2 SWAP1 PUSH0 MSTORE PUSH1 0x20 PUSH0 KECCAK256 SWAP1 JUMPDEST DUP2 SLOAD DUP2 MSTORE SWAP1 PUSH1 0x1 ADD SWAP1 PUSH1 0x20 ADD DUP1 DUP4 GT PUSH2 0x7DC JUMPI DUP3 SWAP1 SUB PUSH1 0x1F AND DUP3 ADD SWAP2 JUMPDEST POP POP POP POP POP DUP2 MSTORE PUSH1 0x20 ADD PUSH1 0x2 DUP3 ADD PUSH0 SWAP1 SLOAD SWAP1 PUSH2 0x100 EXP SWAP1 DIV PUSH20 0xFFFFFFFFFFFFFFFFFFFFFFFFFFFFFFFFFFFFFFFF AND PUSH20 0xFFFFFFFFFFFFFFFFFFFFFFFFFFFFFFFFFFFFFFFF AND PUSH20 0xFFFFFFFFFFFFFFFFFFFFFFFFFFFFFFFFFFFFFFFF AND DUP2 MSTORE POP POP SWAP1 POP DUP3 PUSH20 0xFFFFFFFFFFFFFFFFFFFFFFFFFFFFFFFFFFFFFFFF AND DUP2 PUSH1 0x40 ADD MLOAD PUSH20 0xFFFFFFFFFFFFFFFFFFFFFFFFFFFFFFFFFFFFFFFF AND EQ PUSH2 0x8CB JUMPI PUSH1 0x40 MLOAD PUSH32 0x8C379A000000000000000000000000000000000000000000000000000000000 DUP2 MSTORE PUSH1 0x4 ADD PUSH2 0x8C2 SWAP1 PUSH2 0x1261 JUMP JUMPDEST PUSH1 0x40 MLOAD DUP1 SWAP2 SUB SWAP1 REVERT JUMPDEST DUP1 SWAP2 POP POP SWAP3 SWAP2 POP POP JUMP JUMPDEST PUSH1 0x40 MLOAD DUP1 PUSH1 0x60 ADD PUSH1 0x40 MSTORE DUP1 PUSH1 0x60 DUP2 MSTORE PUSH1 0x20 ADD PUSH1 0x60 DUP2 MSTORE PUSH1 0x20 ADD PUSH0 PUSH20 0xFFFFFFFFFFFFFFFFFFFFFFFFFFFFFFFFFFFFFFFF AND DUP2 MSTORE POP SWAP1 JUMP JUMPDEST PUSH0 PUSH1 0x40 MLOAD SWAP1 POP SWAP1 JUMP JUMPDEST PUSH0 DUP1 REVERT JUMPDEST PUSH0 DUP1 REVERT JUMPDEST PUSH0 PUSH20 0xFFFFFFFFFFFFFFFFFFFFFFFFFFFFFFFFFFFFFFFF DUP3 AND SWAP1 POP SWAP2 SWAP1 POP JUMP JUMPDEST PUSH0 PUSH2 0x945 DUP3 PUSH2 0x91C JUMP JUMPDEST SWAP1 POP SWAP2 SWAP1 POP JUMP JUMPDEST PUSH2 0x955 DUP2 PUSH2 0x93B JUMP JUMPDEST DUP2 EQ PUSH2 0x95F JUMPI PUSH0 DUP1 REVERT JUMPDEST POP JUMP JUMPDEST PUSH0 DUP2 CALLDATALOAD SWAP1 POP PUSH2 0x970 DUP2 PUSH2 0x94C JUMP JUMPDEST SWAP3 SWAP2 POP POP JUMP JUMPDEST PUSH0 PUSH1 0x20 DUP3 DUP5 SUB SLT ISZERO PUSH2 0x98B JUMPI PUSH2 0x98A PUSH2 0x914 JUMP JUMPDEST JUMPDEST PUSH0 PUSH2 0x998 DUP5 DUP3 DUP6 ADD PUSH2 0x962 JUMP JUMPDEST SWAP2 POP POP SWAP3 SWAP2 POP POP JUMP JUMPDEST PUSH0 DUP2 MLOAD SWAP1 POP SWAP2 SWAP1 POP JUMP JUMPDEST PUSH0 DUP3 DUP3 MSTORE PUSH1 0x20 DUP3 ADD SWAP1 POP SWAP3 SWAP2 POP POP JUMP JUMPDEST PUSH0 JUMPDEST DUP4 DUP2 LT ISZERO PUSH2 0x9D8 JUMPI DUP1 DUP3 ADD MLOAD DUP2 DUP5 ADD MSTORE PUSH1 0x20 DUP2 ADD SWAP1 POP PUSH2 0x9BD JUMP JUMPDEST PUSH0 DUP5 DUP5 ADD MSTORE POP POP POP POP JUMP JUMPDEST PUSH0 PUSH1 0x1F NOT PUSH1 0x1F DUP4 ADD AND SWAP1 POP SWAP2 SWAP1 POP JUMP JUMPDEST PUSH0 PUSH2 0x9FD DUP3 PUSH2 0x9A1 JUMP JUMPDEST PUSH2 0xA07 DUP2 DUP6 PUSH2 0x9AB JUMP JUMPDEST SWAP4 POP PUSH2 0xA17 DUP2 DUP6 PUSH1 0x20 DUP7 ADD PUSH2 0x9BB JUMP JUMPDEST PUSH2 0xA20 DUP2 PUSH2 0x9E3 JUMP JUMPDEST DUP5 ADD SWAP2 POP POP SWAP3 SWAP2 POP POP JUMP JUMPDEST PUSH0 PUSH1 0x20 DUP3 ADD SWAP1 POP DUP2 DUP2 SUB PUSH0 DUP4 ADD MSTORE PUSH2 0xA43 DUP2 DUP5 PUSH2 0x9F3 JUMP JUMPDEST SWAP1 POP SWAP3 SWAP2 POP POP JUMP JUMPDEST PUSH0 DUP1 REVERT JUMPDEST PUSH0 DUP1 REVERT JUMPDEST PUSH32 0x4E487B7100000000000000000000000000000000000000000000000000000000 PUSH0 MSTORE PUSH1 0x41 PUSH1 0x4 MSTORE PUSH1 0x24 PUSH0 REVERT JUMPDEST PUSH2 0xA89 DUP3 PUSH2 0x9E3 JUMP JUMPDEST DUP2 ADD DUP2 DUP2 LT PUSH8 0xFFFFFFFFFFFFFFFF DUP3 GT OR ISZERO PUSH2 0xAA8 JUMPI PUSH2 0xAA7 PUSH2 0xA53 JUMP JUMPDEST JUMPDEST DUP1 PUSH1 0x40 MSTORE POP POP POP JUMP JUMPDEST PUSH0 PUSH2 0xABA PUSH2 0x90B JUMP JUMPDEST SWAP1 POP PUSH2 0xAC6 DUP3 DUP3 PUSH2 0xA80 JUMP JUMPDEST SWAP2 SWAP1 POP JUMP JUMPDEST PUSH0 PUSH8 0xFFFFFFFFFFFFFFFF DUP3 GT ISZERO PUSH2 0xAE5 JUMPI PUSH2 0xAE4 PUSH2 0xA53 JUMP JUMPDEST JUMPDEST PUSH2 0xAEE DUP3 PUSH2 0x9E3 JUMP JUMPDEST SWAP1 POP PUSH1 0x20 DUP2 ADD SWAP1 POP SWAP2 SWAP1 POP JUMP JUMPDEST DUP3 DUP2 DUP4 CALLDATACOPY PUSH0 DUP4 DUP4 ADD MSTORE POP POP POP JUMP JUMPDEST PUSH0 PUSH2 0xB1B PUSH2 0xB16 DUP5 PUSH2 0xACB JUMP JUMPDEST PUSH2 0xAB1 JUMP JUMPDEST SWAP1 POP DUP3 DUP2 MSTORE PUSH1 0x20 DUP2 ADD DUP5 DUP5 DUP5 ADD GT ISZERO PUSH2 0xB37 JUMPI PUSH2 0xB36 PUSH2 0xA4F JUMP JUMPDEST JUMPDEST PUSH2 0xB42 DUP5 DUP3 DUP6 PUSH2 0xAFB JUMP JUMPDEST POP SWAP4 SWAP3 POP POP POP JUMP JUMPDEST PUSH0 DUP3 PUSH1 0x1F DUP4 ADD SLT PUSH2 0xB5E JUMPI PUSH2 0xB5D PUSH2 0xA4B JUMP JUMPDEST JUMPDEST DUP2 CALLDATALOAD PUSH2 0xB6E DUP5 DUP3 PUSH1 0x20 DUP7 ADD PUSH2 0xB09 JUMP JUMPDEST SWAP2 POP POP SWAP3 SWAP2 POP POP JUMP JUMPDEST PUSH0 PUSH1 0x20 DUP3 DUP5 SUB SLT ISZERO PUSH2 0xB8C JUMPI PUSH2 0xB8B PUSH2 0x914 JUMP JUMPDEST JUMPDEST PUSH0 DUP3 ADD CALLDATALOAD PUSH8 0xFFFFFFFFFFFFFFFF DUP2 GT ISZERO PUSH2 0xBA9 JUMPI PUSH2 0xBA8 PUSH2 0x918 JUMP JUMPDEST JUMPDEST PUSH2 0xBB5 DUP5 DUP3 DUP6 ADD PUSH2 0xB4A JUMP JUMPDEST SWAP2 POP POP SWAP3 SWAP2 POP POP JUMP JUMPDEST PUSH2 0xBC7 DUP2 PUSH2 0x93B JUMP JUMPDEST DUP3 MSTORE POP POP JUMP JUMPDEST PUSH0 PUSH1 0x60 DUP3 ADD SWAP1 POP DUP2 DUP2 SUB PUSH0 DUP4 ADD MSTORE PUSH2 0xBE5 DUP2 DUP7 PUSH2 0x9F3 JUMP JUMPDEST SWAP1 POP DUP2 DUP2 SUB PUSH1 0x20 DUP4 ADD MSTORE PUSH2 0xBF9 DUP2 DUP6 PUSH2 0x9F3 JUMP JUMPDEST SWAP1 POP PUSH2 0xC08 PUSH1 0x40 DUP4 ADD DUP5 PUSH2 0xBBE JUMP JUMPDEST SWAP5 SWAP4 POP POP POP POP JUMP JUMPDEST PUSH0 DUP1 PUSH0 PUSH1 0x60 DUP5 DUP7 SUB SLT ISZERO PUSH2 0xC27 JUMPI PUSH2 0xC26 PUSH2 0x914 JUMP JUMPDEST JUMPDEST PUSH0 DUP5 ADD CALLDATALOAD PUSH8 0xFFFFFFFFFFFFFFFF DUP2 GT ISZERO PUSH2 0xC44 JUMPI PUSH2 0xC43 PUSH2 0x918 JUMP JUMPDEST JUMPDEST PUSH2 0xC50 DUP7 DUP3 DUP8 ADD PUSH2 0xB4A JUMP JUMPDEST SWAP4 POP POP PUSH1 0x20 DUP5 ADD CALLDATALOAD PUSH8 0xFFFFFFFFFFFFFFFF DUP2 GT ISZERO PUSH2 0xC71 JUMPI PUSH2 0xC70 PUSH2 0x918 JUMP JUMPDEST JUMPDEST PUSH2 0xC7D DUP7 DUP3 DUP8 ADD PUSH2 0xB4A JUMP JUMPDEST SWAP3 POP POP PUSH1 0x40 PUSH2 0xC8E DUP7 DUP3 DUP8 ADD PUSH2 0x962 JUMP JUMPDEST SWAP2 POP POP SWAP3 POP SWAP3 POP SWAP3 JUMP JUMPDEST PUSH0 DUP1 PUSH1 0x40 DUP4 DUP6 SUB SLT ISZERO PUSH2 0xCAE JUMPI PUSH2 0xCAD PUSH2 0x914 JUMP JUMPDEST JUMPDEST PUSH0 DUP4 ADD CALLDATALOAD PUSH8 0xFFFFFFFFFFFFFFFF DUP2 GT ISZERO PUSH2 0xCCB JUMPI PUSH2 0xCCA PUSH2 0x918 JUMP JUMPDEST JUMPDEST PUSH2 0xCD7 DUP6 DUP3 DUP7 ADD PUSH2 0xB4A JUMP JUMPDEST SWAP3 POP POP PUSH1 0x20 PUSH2 0xCE8 DUP6 DUP3 DUP7 ADD PUSH2 0x962 JUMP JUMPDEST SWAP2 POP POP SWAP3 POP SWAP3 SWAP1 POP JUMP JUMPDEST PUSH0 DUP3 DUP3 MSTORE PUSH1 0x20 DUP3 ADD SWAP1 POP SWAP3 SWAP2 POP POP JUMP JUMPDEST PUSH0 PUSH2 0xD0C DUP3 PUSH2 0x9A1 JUMP JUMPDEST PUSH2 0xD16 DUP2 DUP6 PUSH2 0xCF2 JUMP JUMPDEST SWAP4 POP PUSH2 0xD26 DUP2 DUP6 PUSH1 0x20 DUP7 ADD PUSH2 0x9BB JUMP JUMPDEST PUSH2 0xD2F DUP2 PUSH2 0x9E3 JUMP JUMPDEST DUP5 ADD SWAP2 POP POP SWAP3 SWAP2 POP POP JUMP JUMPDEST PUSH2 0xD43 DUP2 PUSH2 0x93B JUMP JUMPDEST DUP3 MSTORE POP POP JUMP JUMPDEST PUSH0 PUSH1 0x60 DUP4 ADD PUSH0 DUP4 ADD MLOAD DUP5 DUP3 SUB PUSH0 DUP7 ADD MSTORE PUSH2 0xD63 DUP3 DUP3 PUSH2 0xD02 JUMP JUMPDEST SWAP2 POP POP PUSH1 0x20 DUP4 ADD MLOAD DUP5 DUP3 SUB PUSH1 0x20 DUP7 ADD MSTORE PUSH2 0xD7D DUP3 DUP3 PUSH2 0xD02 JUMP JUMPDEST SWAP2 POP POP PUSH1 0x40 DUP4 ADD MLOAD PUSH2 0xD92 PUSH1 0x40 DUP7 ADD DUP3 PUSH2 0xD3A JUMP JUMPDEST POP DUP1 SWAP2 POP POP SWAP3 SWAP2 POP POP JUMP JUMPDEST PUSH0 PUSH1 0x20 DUP3 ADD SWAP1 POP DUP2 DUP2 SUB PUSH0 DUP4 ADD MSTORE PUSH2 0xDB5 DUP2 DUP5 PUSH2 0xD49 JUMP JUMPDEST SWAP1 POP SWAP3 SWAP2 POP POP JUMP JUMPDEST PUSH32 0x4E487B7100000000000000000000000000000000000000000000000000000000 PUSH0 MSTORE PUSH1 0x22 PUSH1 0x4 MSTORE PUSH1 0x24 PUSH0 REVERT JUMPDEST PUSH0 PUSH1 0x2 DUP3 DIV SWAP1 POP PUSH1 0x1 DUP3 AND DUP1 PUSH2 0xE01 JUMPI PUSH1 0x7F DUP3 AND SWAP2 POP JUMPDEST PUSH1 0x20 DUP3 LT DUP2 SUB PUSH2 0xE14 JUMPI PUSH2 0xE13 PUSH2 0xDBD JUMP JUMPDEST JUMPDEST POP SWAP2 SWAP1 POP JUMP JUMPDEST PUSH32 0x556E61626C6520746F2066696E6420757365726E616D65210000000000000000 PUSH0 DUP3 ADD MSTORE POP JUMP JUMPDEST PUSH0 PUSH2 0xE4E PUSH1 0x18 DUP4 PUSH2 0x9AB JUMP JUMPDEST SWAP2 POP PUSH2 0xE59 DUP3 PUSH2 0xE1A JUMP JUMPDEST PUSH1 0x20 DUP3 ADD SWAP1 POP SWAP2 SWAP1 POP JUMP JUMPDEST PUSH0 PUSH1 0x20 DUP3 ADD SWAP1 POP DUP2 DUP2 SUB PUSH0 DUP4 ADD MSTORE PUSH2 0xE7B DUP2 PUSH2 0xE42 JUMP JUMPDEST SWAP1 POP SWAP2 SWAP1 POP JUMP JUMPDEST PUSH0 DUP2 SWAP1 POP SWAP3 SWAP2 POP POP JUMP JUMPDEST PUSH0 PUSH2 0xE96 DUP3 PUSH2 0x9A1 JUMP JUMPDEST PUSH2 0xEA0 DUP2 DUP6 PUSH2 0xE82 JUMP JUMPDEST SWAP4 POP PUSH2 0xEB0 DUP2 DUP6 PUSH1 0x20 DUP7 ADD PUSH2 0x9BB JUMP JUMPDEST DUP1 DUP5 ADD SWAP2 POP POP SWAP3 SWAP2 POP POP JUMP JUMPDEST PUSH0 PUSH2 0xEC7 DUP3 DUP5 PUSH2 0xE8C JUMP JUMPDEST SWAP2 POP DUP2 SWAP1 POP SWAP3 SWAP2 POP POP JUMP JUMPDEST PUSH32 0x55736572206973206E6F74207265676973746572656421000000000000000000 PUSH0 DUP3 ADD MSTORE POP JUMP JUMPDEST PUSH0 PUSH2 0xF06 PUSH1 0x17 DUP4 PUSH2 0x9AB JUMP JUMPDEST SWAP2 POP PUSH2 0xF11 DUP3 PUSH2 0xED2 JUMP JUMPDEST PUSH1 0x20 DUP3 ADD SWAP1 POP SWAP2 SWAP1 POP JUMP JUMPDEST PUSH0 PUSH1 0x20 DUP3 ADD SWAP1 POP DUP2 DUP2 SUB PUSH0 DUP4 ADD MSTORE PUSH2 0xF33 DUP2 PUSH2 0xEFA JUMP JUMPDEST SWAP1 POP SWAP2 SWAP1 POP JUMP JUMPDEST PUSH32 0x5573657220616C72656164792065786973742100000000000000000000000000 PUSH0 DUP3 ADD MSTORE POP JUMP JUMPDEST PUSH0 PUSH2 0xF6E PUSH1 0x13 DUP4 PUSH2 0x9AB JUMP JUMPDEST SWAP2 POP PUSH2 0xF79 DUP3 PUSH2 0xF3A JUMP JUMPDEST PUSH1 0x20 DUP3 ADD SWAP1 POP SWAP2 SWAP1 POP JUMP JUMPDEST PUSH0 PUSH1 0x20 DUP3 ADD SWAP1 POP DUP2 DUP2 SUB PUSH0 DUP4 ADD MSTORE PUSH2 0xF9B DUP2 PUSH2 0xF62 JUMP JUMPDEST SWAP1 POP SWAP2 SWAP1 POP JUMP JUMPDEST PUSH0 DUP2 SWAP1 POP DUP2 PUSH0 MSTORE PUSH1 0x20 PUSH0 KECCAK256 SWAP1 POP SWAP2 SWAP1 POP JUMP JUMPDEST PUSH0 PUSH1 0x20 PUSH1 0x1F DUP4 ADD DIV SWAP1 POP SWAP2 SWAP1 POP JUMP JUMPDEST PUSH0 DUP3 DUP3 SHL SWAP1 POP SWAP3 SWAP2 POP POP JUMP JUMPDEST PUSH0 PUSH1 0x8 DUP4 MUL PUSH2 0xFFE PUSH32 0xFFFFFFFFFFFFFFFFFFFFFFFFFFFFFFFFFFFFFFFFFFFFFFFFFFFFFFFFFFFFFFFF DUP3 PUSH2 0xFC3 JUMP JUMPDEST PUSH2 0x1008 DUP7 DUP4 PUSH2 0xFC3 JUMP JUMPDEST SWAP6 POP DUP1 NOT DUP5 AND SWAP4 POP DUP1 DUP7 AND DUP5 OR SWAP3 POP POP POP SWAP4 SWAP3 POP POP POP JUMP JUMPDEST PUSH0 DUP2 SWAP1 POP SWAP2 SWAP1 POP JUMP JUMPDEST PUSH0 DUP2 SWAP1 POP SWAP2 SWAP1 POP JUMP JUMPDEST PUSH0 PUSH2 0x104C PUSH2 0x1047 PUSH2 0x1042 DUP5 PUSH2 0x1020 JUMP JUMPDEST PUSH2 0x1029 JUMP JUMPDEST PUSH2 0x1020 JUMP JUMPDEST SWAP1 POP SWAP2 SWAP1 POP JUMP JUMPDEST PUSH0 DUP2 SWAP1 POP SWAP2 SWAP1 POP JUMP JUMPDEST PUSH2 0x1065 DUP4 PUSH2 0x1032 JUMP JUMPDEST PUSH2 0x1079 PUSH2 0x1071 DUP3 PUSH2 0x1053 JUMP JUMPDEST DUP5 DUP5 SLOAD PUSH2 0xFCF JUMP JUMPDEST DUP3 SSTORE POP POP POP POP JUMP JUMPDEST PUSH0 SWAP1 JUMP JUMPDEST PUSH2 0x108D PUSH2 0x1081 JUMP JUMPDEST PUSH2 0x1098 DUP2 DUP5 DUP5 PUSH2 0x105C JUMP JUMPDEST POP POP POP JUMP JUMPDEST JUMPDEST DUP2 DUP2 LT ISZERO PUSH2 0x10BB JUMPI PUSH2 0x10B0 PUSH0 DUP3 PUSH2 0x1085 JUMP JUMPDEST PUSH1 0x1 DUP2 ADD SWAP1 POP PUSH2 0x109E JUMP JUMPDEST POP POP JUMP JUMPDEST PUSH1 0x1F DUP3 GT ISZERO PUSH2 0x1100 JUMPI PUSH2 0x10D1 DUP2 PUSH2 0xFA2 JUMP JUMPDEST PUSH2 0x10DA DUP5 PUSH2 0xFB4 JUMP JUMPDEST DUP2 ADD PUSH1 0x20 DUP6 LT ISZERO PUSH2 0x10E9 JUMPI DUP2 SWAP1 POP JUMPDEST PUSH2 0x10FD PUSH2 0x10F5 DUP6 PUSH2 0xFB4 JUMP JUMPDEST DUP4 ADD DUP3 PUSH2 0x109D JUMP JUMPDEST POP POP JUMPDEST POP POP POP JUMP JUMPDEST PUSH0 DUP3 DUP3 SHR SWAP1 POP SWAP3 SWAP2 POP POP JUMP JUMPDEST PUSH0 PUSH2 0x1120 PUSH0 NOT DUP5 PUSH1 0x8 MUL PUSH2 0x1105 JUMP JUMPDEST NOT DUP1 DUP4 AND SWAP2 POP POP SWAP3 SWAP2 POP POP JUMP JUMPDEST PUSH0 PUSH2 0x1138 DUP4 DUP4 PUSH2 0x1111 JUMP JUMPDEST SWAP2 POP DUP3 PUSH1 0x2 MUL DUP3 OR SWAP1 POP SWAP3 SWAP2 POP POP JUMP JUMPDEST PUSH2 0x1151 DUP3 PUSH2 0x9A1 JUMP JUMPDEST PUSH8 0xFFFFFFFFFFFFFFFF DUP2 GT ISZERO PUSH2 0x116A JUMPI PUSH2 0x1169 PUSH2 0xA53 JUMP JUMPDEST JUMPDEST PUSH2 0x1174 DUP3 SLOAD PUSH2 0xDEA JUMP JUMPDEST PUSH2 0x117F DUP3 DUP3 DUP6 PUSH2 0x10BF JUMP JUMPDEST PUSH0 PUSH1 0x20 SWAP1 POP PUSH1 0x1F DUP4 GT PUSH1 0x1 DUP2 EQ PUSH2 0x11B0 JUMPI PUSH0 DUP5 ISZERO PUSH2 0x119E JUMPI DUP3 DUP8 ADD MLOAD SWAP1 POP JUMPDEST PUSH2 0x11A8 DUP6 DUP3 PUSH2 0x112D JUMP JUMPDEST DUP7 SSTORE POP PUSH2 0x120F JUMP JUMPDEST PUSH1 0x1F NOT DUP5 AND PUSH2 0x11BE DUP7 PUSH2 0xFA2 JUMP JUMPDEST PUSH0 JUMPDEST DUP3 DUP2 LT ISZERO PUSH2 0x11E5 JUMPI DUP5 DUP10 ADD MLOAD DUP3 SSTORE PUSH1 0x1 DUP3 ADD SWAP2 POP PUSH1 0x20 DUP6 ADD SWAP5 POP PUSH1 0x20 DUP2 ADD SWAP1 POP PUSH2 0x11C0 JUMP JUMPDEST DUP7 DUP4 LT ISZERO PUSH2 0x1202 JUMPI DUP5 DUP10 ADD MLOAD PUSH2 0x11FE PUSH1 0x1F DUP10 AND DUP3 PUSH2 0x1111 JUMP JUMPDEST DUP4 SSTORE POP JUMPDEST PUSH1 0x1 PUSH1 0x2 DUP9 MUL ADD DUP9 SSTORE POP POP POP JUMPDEST POP POP POP POP POP POP JUMP JUMPDEST PUSH32 0x496E76616C69642077616C6C6574204164647265737321000000000000000000 PUSH0 DUP3 ADD MSTORE POP JUMP JUMPDEST PUSH0 PUSH2 0x124B PUSH1 0x17 DUP4 PUSH2 0x9AB JUMP JUMPDEST SWAP2 POP PUSH2 0x1256 DUP3 PUSH2 0x1217 JUMP JUMPDEST PUSH1 0x20 DUP3 ADD SWAP1 POP SWAP2 SWAP1 POP JUMP JUMPDEST PUSH0 PUSH1 0x20 DUP3 ADD SWAP1 POP DUP2 DUP2 SUB PUSH0 DUP4 ADD MSTORE PUSH2 0x1278 DUP2 PUSH2 0x123F JUMP JUMPDEST SWAP1 POP SWAP2 SWAP1 POP JUMP INVALID LOG2 PUSH5 0x6970667358 0x22 SLT KECCAK256 0xAA 0x25 DUP16 SHL DUP8 MLOAD 0xD6 MCOPY PUSH0 PUSH13 0x236E44256B6E145999285780AA EQ DUP4 DUP6 PUSH22 0x2B280F84E764736F6C63430008180033000000000000 "
				},
				"gasEstimates": {
					"creation": {
						"codeDepositCost": "957800",
						"executionCost": "992",
						"totalCost": "958792"
					},
					"external": {
						"getCurrentUsername(address)": "infinite",
						"login(string,address)": "infinite",
						"registerUser(string,string,address)": "infinite",
						"userExist(string)": "infinite",
						"userNames(address)": "infinite",
						"users(string)": "infinite"
					}
				},
				"methodIdentifiers": {
					"getCurrentUsername(address)": "024109ad",
					"login(string,address)": "ef9b432a",
					"registerUser(string,string,address)": "88557b07",
					"userExist(string)": "1b81e2d2",
					"userNames(address)": "7f281635",
					"users(string)": "689e1c03"
				}
			},
			"storageLayout": {
				"storage": [
					{
						"astId": 388,
						"contract": "contracts/TccUser.sol:TccUser",
						"label": "users",
						"offset": 0,
						"slot": "0",
						"type": "t_mapping(t_string_memory_ptr,t_struct(User)383_storage)"
					},
					{
						"astId": 392,
						"contract": "contracts/TccUser.sol:TccUser",
						"label": "userNames",
						"offset": 0,
						"slot": "1",
						"type": "t_mapping(t_address,t_string_storage)"
					}
				],
				"types": {
					"t_address": {
						"encoding": "inplace",
						"label": "address",
						"numberOfBytes": "20"
					},
					"t_mapping(t_address,t_string_storage)": {
						"encoding": "mapping",
						"key": "t_address",
						"label": "mapping(address => string)",
						"numberOfBytes": "32",
						"value": "t_string_storage"
					},
					"t_mapping(t_string_memory_ptr,t_struct(User)383_storage)": {
						"encoding": "mapping",
						"key": "t_string_memory_ptr",
						"label": "mapping(string => struct TccUser.User)",
						"numberOfBytes": "32",
						"value": "t_struct(User)383_storage"
					},
					"t_string_memory_ptr": {
						"encoding": "bytes",
						"label": "string",
						"numberOfBytes": "32"
					},
					"t_string_storage": {
						"encoding": "bytes",
						"label": "string",
						"numberOfBytes": "32"
					},
					"t_struct(User)383_storage": {
						"encoding": "inplace",
						"label": "struct TccUser.User",
						"members": [
							{
								"astId": 378,
								"contract": "contracts/TccUser.sol:TccUser",
								"label": "username",
								"offset": 0,
								"slot": "0",
								"type": "t_string_storage"
							},
							{
								"astId": 380,
								"contract": "contracts/TccUser.sol:TccUser",
								"label": "fullname",
								"offset": 0,
								"slot": "1",
								"type": "t_string_storage"
							},
							{
								"astId": 382,
								"contract": "contracts/TccUser.sol:TccUser",
								"label": "walletAddress",
								"offset": 0,
								"slot": "2",
								"type": "t_address"
							}
						],
						"numberOfBytes": "96"
					}
				}
			},
			"userdoc": {
				"kind": "user",
				"methods": {},
				"version": 1
			}
		}
	}
}